:020000040800F2
:10000000B0240124AD020008D1020008D302000888
:10001000B90D0008D7020008D9020008000000004E
:100020000000000000000000000000007B1310082A
:10003000DD020008000000004113100869081008E4
:10004000E3020008E3020008E3020008E3020008FC
:10005000E3020008E3020008E3020008E3020008EC
:10006000E3020008E3020008E3020008E3020008DC
:10007000E3020008E3020008E3020008E3020008CC
:10008000E3020008E3020008E3020008E3020008BC
:10009000E3020008E3020008E3020008E3020008AC
:1000A000E3020008E3020008E3020008E30200089C
:1000B000E3020008E3020008E3020008E30200088C
:1000C000E3020008E3020008E3020008E30200087C
:1000D000E302000801190008110E10082919000890
:1000E000E3020008E302000800000000E302000849
:1000F000E3020008E3020008E3020008E30200084C
:10010000E3020008E3020008E3020008E30200083B
:10011000E3020008E3020008E3020008E30200082B
:10012000E3020008E3020008E3020008E30200081B
:10013000E3020008E3020008E3020008E30200080B
:1001400000000000000000000000000000000000AF
:10015000E3020008E3020008E3020008E3020008EB
:10016000E3020008E3020008E3020008E3020008DB
:10017000E3020008E3020008E302000800000000B8
:10018000E3020008E3020008E3020008E3020008BB
:10019000E3020008E3020008E3020008E3020008AB
:1001A000E3020008E3020008E3020008E30200089B
:1001B000E3020008E3020008E3020008E30200088B
:1001C000E3020008E3020008E3020008E30200087B
:1001D000E3020008E3020008E3020008E30200086B
:1001E000E3020008E3020008E3020008E30200085B
:1001F000E3020008E3020008E3020008E30200084B
:10020000E3020008E3020008E3020008E30200083A
:10021000E3020008E3020008E3020008E30200082A
:10022000E3020008E3020008E30200080000000007
:10023000E3020008E302000800000000E3020008F7
:10024000E3020008E3020008E3020008E3020008FA
:10025000E3020008E3020008E3020008E3020008EA
:10026000E3020008E3020008E3020008E3020008DA
:10027000E3020008E3020008E302000800000000B7
:10028000E302000800000000E30200080000000094
:1002900000000000E3020008DFF80CD000F06AF96B
:1002A00000480047F9111008B0240124DFF8340099
:1002B000016841F470010160BFF34F8FDFF828003F
:1002C000016821F040410160BFF36F8F074800478C
:1002D000FEE7FEE7FEE7FEE7FEE7FEE7FEE7FEE7F6
:1002E000FEE7FEE788ED00E034EF00E09902000849
:1002F0002DE9F05F0546002092469B46884606465B
:10030000814640241BE02846414647462246FFF0EE
:1003100034FF53465A46C01A914110D3114618462D
:10032000224600F039F92D1A67EB01084F462246A4
:100330000120002100F030F917EB00094E41201E8A
:10034000A4F10104DFDC484631462A464346BDE8B5
:10035000F09F2DE9FE4F81EA030404F0004421F0F0
:10036000004100944FF0000B23F0004350EA0104D9
:100370005ED052EA03045BD0C3F30A54C1F30A55BA
:100380002C44A4F2F3340194A0FB0254C1F31301F2
:1003900041F48011C3F3130343F4801301FB0244BF
:1003A00000FB034E840A970A44EA815447EA8357C4
:1003B000A4FB076802958D0A05FB07854FEA932C7D
:1003C00004FB0C542705029D4FEA065847EA1637EE
:1003D000B5EB08056EEB070C870E920E47EA811706
:1003E00042EA8312A7FB0201B6EB0B0164EB0004A7
:1003F0002B0D43EA0C335E1844EB1C50DA46514691
:10040000E7FB0201C5F313044FEA0B3343EA14532D
:100410004FEA0432019C43EA0603A4F10C0402945F
:10042000009CCDE900B400F0D5F803B0BDE8F08F32
:1004300000200146F9E72DE9F04D81EA030404F0BC
:10044000004B21F0004514464FF0000A23F0004114
:1004500050EA050220D054EA01021DD0C5F30A5724
:100460000246C5F31303C1F31300C1F30A5640F467
:10047000801543F48013A7EB0608101BD64608F23C
:10048000FD3873EB050002D308F1010801E0921872
:100490005B41B8F1000F03DA00200146BDE8F08DA2
:1004A00000204FF48011064684460EE0171B73EBC4
:1004B000050705D3121B63EB050306434CEA010C49
:1004C00049084FEA300092185B4150EA0107EDD12C
:1004D00052EA030012D082EA040083EA05010843CD
:1004E00005D0101BAB4106D20122002306E00022FA
:1004F0004FF0004302E06FF0010253101AEB0600C8
:100500004CEB085110EB0A0041EB0B01BDE8F04D3C
:1005100000F051B8C1F30A52C1F3130140F2FF33A6
:1005200041F480119A4202DA00200146704740F2FD
:1005300033439A42A2F2334202DC5242FFF01DBE24
:1005400000F02AB830B5041E71F1000404DB4FF04E
:100550000044404264EB0101141E73F1000405DB0A
:100560001C464FF00043524263EB0403994208BF1C
:10057000904230BD064C074D06E0E06840F00103B4
:1005800094E8070098471034AC42F6D3FFF788FE92
:10059000141C0008241C0008202A04DB203A00FA5E
:1005A00002F1002070479140C2F1200320FA03F3CA
:1005B00019439040704710B5141E73F1000408DA17
:1005C000401C41F1000192185B411A4301D120F017
:1005D000010010BD2DE9F04D92469B4611B1B1FAD4
:1005E00081F202E0B0FA80F220329046FFF7D4FFA9
:1005F00004460F4640EA0A0041EA0B0153465A46B8
:10060000084313D0114653EA010019D0C8F1400243
:100610005046FFF0B2FD05460E465046594642464A
:10062000FFF7BAFF084305D0012004E02046394611
:10063000BDE8F08D0020054346EAE0762C433743C1
:100640000A986305E40AA0EB08000022FD0A44EAC8
:1006500047540A3002D500200146E9E70105101988
:100660006941DDE9084500196941BDE8F04DA2E79F
:1006700010B5431A934209D28318881803E010F882
:10068000011D03F8011D521EF9D210BD40EA0103FD
:100690009B0703D009E008C9121F08C0042AFAD238
:1006A00003E011F8013B00F8013B521EF9D210BDE6
:1006B00080B584B040F23041C2F201414C31039127
:1006C000ADF80A00BDF80A0003998989884201DD66
:1006D000FFE7DBE003980069A8B3FFE703984068F1
:1006E0000078A8B9FFE703984068806803994A68D2
:1006F0000969D268891A039A52685288B1FBF2F1EB
:1007000000EB81004088039949684988484319E013
:10071000039840688068039949688988039A5368F8
:100720001269DB68D21A039B5B685B88B2FBF3F249
:10073000891A00EB810030F8020C03994968498856
:100740004843FFE701E00020FFE703998A89013A67
:10075000098802FB1100039949684988884275DBC2
:10076000FFE7039948688A89013A0988514300F0F4
:1007700067FB01900198039A1169BDF80A3012884D
:100780005A43FFF775FF0198BDF80A10039A1288C3
:1007900001FB02000199BDF80A200132039B1B886E
:1007A00002FB0311039AB2F80CC0BDF80A30DB4318
:1007B000634412885A43FFF75BFF0198A8B3FFE731
:1007C000039840680078A8B9FFE7039840688068FC
:1007D0000199039A5268D268891A039A526852881A
:1007E000B1FBF2F100EB8100408803994968498828
:1007F000484319E0039840688068039949688988EC
:10080000019A039B5B68DB68D21A039B5B685B8879
:10081000B2FBF3F2891A00EB810030F8020C039965
:10082000496849884843FFE701E00020FFE7039952
:10083000098890FBF1F00399488103994868096998
:10084000FFF0C2FE0198039908611AE0039801695C
:10085000BDF80A20008802FB001003990A69BDF860
:100860000A300133098803FB0121039AB2F80CC056
:10087000BDF80A30DB43634412885A43FFF7F8FEA1
:10088000FFE70398818901398181FFE704B080BDCA
:1008900080B58AB0089007910898807900284BD1DC
:1008A000FFE70798002806D4FFE70798089989888A
:1008B000884203DDFFE7002009908AE0089841881C
:1008C00040F21040C2F2014000F0BAFA0430069043
:1008D0000898079900F000F90590089807990139E0
:1008E00000F0FAF804900498069941F8040C059871
:1008F0000699089A5288114441F8080C049840B1AE
:10090000FFE706980499089A5288114441F8080CA8
:1009100003E0069808998860FFE7059828B1FFE78B
:100920000698059941F8040CFFE708988188013181
:100930008180069809904CE00898418840F2104068
:10094000C2F2014000F07CFA043003900898079945
:1009500000F0C2F8029008980799013900F0BCF83D
:100960000190019818B1FFE7029868B9FFE7039872
:1009700040F8040C039808994988014441F8080C90
:100980000398089988601DE003980199089A528895
:10099000114441F8080C0198039941F8040C02989D
:1009A0000399089A5288114441F8080C0398029957
:1009B00041F8040C079820B9FFE70398089988606C
:1009C000FFE7FFE70898818801318180039809904B
:1009D000FFE709980AB080BD80B588B00690059100
:1009E000059818B9FFE7002007906FE00698807916
:1009F000C0BBFFE70698418840F21040C2F20140B8
:100A000000F01EFA04300490059838B1FFE705980D
:100A100006994988084450F8080C01E00020FFE7D7
:100A200003900598049941F8040C03980499069AD8
:100A30005288114441F8080C04980599069A528886
:100A4000114441F8080C039828B1FFE70498039972
:100A500041F8040CFFE706988188013181800498F1
:100A6000079033E00698418840F21040C2F20140FE
:100A700000F0E6F904300290059838B1FFE70598D8
:100A800006994988084450F8080C01E00020FFE767
:100A9000019002980599069A5288114441F8080C71
:100AA0000598029941F8040C01980299069A528817
:100AB000114441F8080C0298019941F8040C069879
:100AC00081880131818002980790FFE7079808B07C
:100AD00080BD00000000000088B0069005910698D7
:100AE0008079C0BBFFE70598002806D4FFE705988A
:100AF00006998988884203DBFFE70020079074E0AD
:100B0000069818B1FFE70698806801E00020FFE72B
:100B1000049000200390FFE703980599884216DAB5
:100B2000FFE7049838B1FFE704980699498808441C
:100B300050F8080C01E00020FFE70490049808B981
:100B4000FFE705E0FFE7039801300390E4E7FFE7E4
:100B50000498079049E00698808818B9FFE70020BC
:100B6000079042E0069818B1FFE70698806801E018
:100B70000020FFE70290059800281BD4FFE7002023
:100B80000190FFE701980599884212DAFFE7029881
:100B900038B1FFE7029806994988084450F8080CD4
:100BA00001E00020FFE70290FFE70198013001908B
:100BB000E8E717E000200090FFE7009805998842D9
:100BC0000FDDFFE7029820B1FFE7029850F8040C10
:100BD00001E00020FFE70290FFE700980138009055
:100BE000EBE7FFE702980790FFE7079808B0704728
:100BF00082B0019000208DF80300FFE701980128E2
:100C000009D0FFE70198400801909DF803000130EA
:100C10008DF80300F2E79DF8030002B07047000072
:100C20004EF69450CEF20000052101604EF624509D
:100C3000CEF20000016841F480310160704700008D
:100C4000B0B582B00125009500244FF000604FF44C
:100C500000110022012300F04BF800954FF00050E6
:100C60004FF400310122012300F042F800954FF0CB
:100C700010504FF400210222012300F039F80095B2
:100C80004FF040504FF400210322012300F030F8D0
:100C900000954FF060504FF480310422012300F0A2
:100CA00027F800944FF0C0404FF0806105220023E8
:100CB00000F01EF800954FF040404FF00071062202
:100CC000012300F015F800944FF000404FF08051E0
:100CD0000722002300F00CF800944FF080404FF002
:100CE00000510822002300F003F802B0B0BD00005C
:100CF00080B588B0DDF828C00690059104920320E5
:100D00008DF80F0000208DF80E008DF80D308DF855
:100D10000CC002908DF807009DF81400C00618B9A9
:100D2000FFE7059820B9FFE701208DF81F0041E09B
:100D30000598FFF75DFF01388DF80700FFF01CFCF8
:100D400004984EF69851CEF20001086006984EF6CF
:100D50009C51CEF20001086002989DF80F1040EA05
:100D60000160029002989DF80E1040EA81400290C6
:100D70009DF80D00029941EA404002909DF80C0058
:100D8000029941EA0040029002989DF8071040EA5B
:100D900041000290029840F00100029002984EF645
:100DA000A051CEF200010860FFF73AFF00208DF855
:100DB0001F00FFE708B080BD704700000000000082
:100DC00010B582B04CF20000C3F60000009040F273
:100DD0000044C2F2014448F20003C3F60003204677
:100DE00004214FF48052FFF02FFC20464FF4806125
:100DF00000F026F803464FF00050009040F21040FB
:100E0000C2F201404FF480714FF48072FFF01CFC7D
:100E100020464FF4806100F013F803464FF0105065
:100E2000009040F22040C2F201404FF480714FF434
:100E30008072FFF009FC02B010BD0000000000004D
:100E400085B003900291029818B9FFE70020049042
:100E500081E0029803994988B0FBF1F00090029874
:100E600003994988B0FBF1F202FB110020B1FFE7C2
:100E7000009801300090FFE700200190FFE7019803
:100E800003998988884263DAFFE7039880680199AB
:100E900010F82100012852D1FFE7039880680199DA
:100EA00000EB810040880099884247DBFFE7039808
:100EB00080680199002200F8212000980399896830
:100EC000019A01EB82014988884215D0FFE7039817
:100ED00080680199009A1144012200F821200398AA
:100EE0008068019900EB81025288009BD21A194454
:100EF00000EB81004280FFE7009803998968019A1E
:100F000001EB820148800398007840B9FFE703981D
:100F1000C168019A408802FB001004901BE003980E
:100F2000C1688088019A801A009AD243104401381F
:100F3000039A528800FB021004900CE0FFE703982C
:100F40008068019900EB810040880844019096E791
:100F500000200490FFE7049805B0704700000000EF
:100F600083B04EF68450CEF2000000210160BFF342
:100F70004F8F4EF61450CEF20000016821F48031FC
:100F80000160BFF34F8F4EF68050CEF20000006834
:100F900002900298C0F34E300190FFE70298C0F330
:100FA000C9000090FFE701980099890760F34D118F
:100FB0004EF67470CEF200000160FFE70098411E0B
:100FC00000910028EFD1FFE7FFE70198411E019152
:100FD0000028E3D1FFE7BFF34F8FBFF36F8F03B05C
:100FE000704700000000000085B004900391029259
:100FF00001930020ADF802008DF8010044F60C00CA
:10100000C5F60200016821F00401016044F61800F1
:10101000C5F60200016841F440410160FFE744F673
:101020001800C5F6020000688004002801D4FFE71C
:10103000F5E744F20040C5F60200016841F4803152
:101040000160FFE744F20040C5F60200016800209D
:101050008903002909D4FFE7BDF8021047F6FF72A3
:1010600000209142B8BF0120FFE7C00730B1FFE781
:10107000BDF802000130ADF80200E3E7BDF8020060
:1010800047F6FF71884204D1FFE701208DF8010087
:10109000F9E044F22840C5F60200016841F002017F
:1010A00001600399026842EA011101600498013865
:1010B00044F23041C5F602010A6810430860029804
:1010C0004FF60062CFF6FF7202EB40200A68104331
:1010D000086001980022CFF6FF7202EB00400A6818
:1010E00010430860086840F08070086044F22C40AB
:1010F000C5F60200016841F0080101600168016065
:10110000016841F44031016044F20040C5F602003C
:10111000016841F080710160FFE744F20040C5F6CC
:10112000020000688001002801D4FFE7F5E744F2DF
:101130002840C5F60200016841F4C831016044F25C
:101140003840C5F60200016840F2B7121143016051
:10115000016841F400710160016841F08071016033
:1011600044F22C40C5F6020001680160016801608C
:10117000016841F400210160016841F4001101603F
:1011800044F24C40C5F60200016821F00301016001
:10119000016841F00201016044F20040C5F602001E
:1011A000016841F080610160FFE744F20040C5F64C
:1011B000020000680001002801D4FFE7F5E744F2CF
:1011C0001840C5F60200016841F00801016001689D
:1011D000016044F21040C5F60200016841F00301CD
:1011E0000160FFE744F21040C5F602000068C0F35A
:1011F000C200ADF80200BDF80200032801D1FFE7EC
:1012000000E0EFE742F20000C5F20020016841F083
:1012100002010160016841F02001016044F21840C0
:10122000C5F60200016841F04001016044F21C4033
:10123000C5F60200016841F040010160016841F417
:101240008061016044F22040C5F60200016841F06F
:101250004001016044F20040C5F60200016841F01F
:101260008001016044F2F440C5F60200016841F0DB
:101270000201016040F22040C5F60000016841F023
:1012800001010160FFE705B07047000000000000A9
:10129000B0B588B08DF81B000591EFF3108072B6E1
:1012A000079040F23040C2F20140C0690490FFE76D
:1012B000049820B3FFE7049800789DF81B1088423B
:1012C00001D1FFE71CE0049800789DF81B108842CC
:1012D00003DDFFE70020049012E0FFE7049850B11F
:1012E000FFE7049840F23041C2F20141C98A084444
:1012F00050F8080C01E00020FFE70490D8E7FFE772
:101300000498002861D1FFE740F23040C2F201406A
:10131000C0690490FFE7049800789DF81B1088428C
:1013200011DAFFE7049850B1FFE7049840F230412A
:10133000C2F20141C98A084450F8080C01E00020BB
:10134000FFE70490E7E7049820B1FFE7049850F81E
:10135000040C01E00020FFE70490049850B1FFE77F
:10136000049940F23040C2F201401430FFF734FBE0
:10137000049009E040F23040C2F2014014300021F4
:10138000FFF786FA0490FFE79DF81B0004990870A8
:1013900004980021416004980C22028104981422D0
:1013A000428104988181049801610498012282732A
:1013B00004986023838204986823C382049801837D
:1013C0000498C16104988276FFE700200390049896
:1013D000083018B1FFE70498006901E00020FFE73A
:1013E0000290FFE70399029802780020914205D10C
:1013F000FFE70298002818BF0120FFE7C00788B167
:10140000FFE7029838B1FFE7029804994989084438
:1014100050F8080C01E00020FFE70290039801302B
:101420000390DFE7049808300299FFF7D5FA02909D
:1014300004981430FFF094F801909DF81B00039974
:1014400001EB0020019988609DF81B000199087349
:101450009DF81B000199487340F23045C2F20145E6
:10146000A86C4FF40071FFF7EBFC019948610198FB
:10147000416901F500710160019801680A1F02606D
:101480004FF0807041F8040C059840F0010001997C
:101490000A68131F0B6042F8040C019801680A1FC8
:1014A0000260002041F8040C01990A684B6903F5B9
:1014B0000173141F0C6042F8043C01990A68131F61
:1014C0000B6042F8040C01990A68131F0B6042F884
:1014D000040C01990A68131F0B6042F8040C01996F
:1014E0000A68131F0B6042F8040C01990A68131F65
:1014F0000B60012142F8041C01990A68131F0B605C
:10150000022142F8041C01990A68183A0A600199FC
:101510000A68131F0B606FF0020142F8041C019966
:1015200005228A730599019B59600499019B996171
:101530000299019BD9610199486208620199C862C8
:10154000886201994864019808210186A86C019974
:101550004863019880F83820A86C2821FFF770FCB8
:10156000019908640198006CA8B3FFE740F230408D
:10157000C2F20140806C0078A0B9FFE740F2304031
:10158000C2F20140816C019A126C8B68CD68521BCB
:101590004988B2FBF1F103EB81014988806C4088F6
:1015A000484317E040F23040C2F20140816C8A6843
:1015B0008988019B1B6C856CEC681B1B6D88B3FBD9
:1015C000F5F3C91A02EB810131F8021C806C4088E6
:1015D0004843FFE701E00020FFE7C0080199488782
:1015E00001980021818701980421A0F8481040F259
:1015F0003040C2F20140816C019AD164019903220A
:1016000081F85020806C0C21FFF71AFC0199886545
:101610000198806DA8B3FFE740F23040C2F201406C
:10162000806C0078A0B9FFE740F23040C2F2014080
:10163000816C019A926D8B68CD68521B4988B2FB10
:10164000F1F103EB81014988806C4088484317E041
:1016500040F23040C2F20140816C8A688988019B67
:101660009B6D856CEC681B1B6D88B3FBF5F3C91A89
:1016700002EB810131F8021C806C40884843FFE78F
:1016800001E00020FFE780080199A1F852000198CD
:101690000021A0F8541001980299486001988068D0
:1016A0000299086004980299886062B6019808B0AF
:1016B000B0BD00000000000082B00090EFF3108089
:1016C00072B601900098807B052816D1FFE700983C
:1016D0000421817340F23040C2F201408168C06849
:1016E000009A5062116200988069406820B9FFE753
:1016F000009881694860FFE7FFE762B602B0704773
:1017000080B586B005900491FFF048FE40F230406D
:10171000C2F20140C06D02900598807B012820D163
:10172000FFE700200390FFE7039840F23041C2F248
:101730000141B1F85810884212DAFFE70298039984
:10174000090140580599884205D1FFE7BDF80C0012
:10175000FEF7AEFFFFE7FFE7039801300390E3E7F2
:101760000DE00598807B48B9FFE70598816AC26A59
:10177000013142F100028162C262FFE7FFE700200F
:101780000390FFE7039840F23041C2F20141B1F803
:10179000581088421CDAFFE70298039900EB011009
:1017A0008168D0F80CC040F23042C2F20142936826
:1017B000D2680498C01842F10002401A72EB0C0083
:1017C00001D2FFE705E0FFE7039801300390D9E776
:1017D000FFE7BDF80C00FEF0F3FC029005980299BB
:1017E000086040F23040C2F201408168C068049A4B
:1017F000891840F10000029A9160D060059801219B
:10180000817305988169496881423AD1FFE705985B
:1018100038B1FFE705988169C98A084450F8080C77
:1018200001E00020FFE70190FFE705980199884259
:1018300015D0FFE70198807B042801D1FFE70FE076
:10184000019840B1FFE7019805998969C98A084460
:1018500050F8080C01E00020FFE70190E5E7FFE702
:101860000198807B042807D0FFE70198807B18B19E
:10187000FFE700200190FFE701980599896948601A
:10188000FFE7FFF08DFDFFF08DFD06B080BD00008D
:10189000FFE7FFF083FD40F29840C2F2014000688C
:1018A000826AC36A41F6A131C0F6100100F050F817
:1018B000FFF076FDFFF076FDEBE700000000000092
:1018C00040F2A040C2F2014000680A21FFF718FF71
:1018D000FFE7FFF063FD40F2A040C2F20140006864
:1018E000826AC36A41F6B331C0F6100100F030F8E5
:1018F000FFF056FDFFF056FDEBE700000000000092
:1019000041F21C00C4F2010000684009C00700B1A8
:10191000FFE741F21800C4F20100018841F008011C
:10192000018070470000000044F61C00C4F2000073
:1019300000684009C00700B1FFE744F61800C4F290
:101940000000018841F0080101807047000000009C
:1019500082B080B586B00993089241F20000C4F2CB
:1019600001000590049108A801900499019A40F2A1
:101970000000C2F2014000F051F802900598FFF01B
:10198000D3FB06B0BDE8804002B070470000000005
:1019900080B584B0029001910298806910F8020C21
:1019A0008DF803009DF8030005282BD8DFE800F030
:1019B00003080A131C29EFF3108072B603902AE083
:1019C00062B628E04EF21000CEF20000016821F06D
:1019D000010101601FE04EF21000CEF2000001682C
:1019E00041F00101016016E04EF60450CEF2000015
:1019F000016841F080510160BFF34F8FBFF36F8FDB
:101A000009E008E09DF8032041F66A31C0F61001B4
:101A1000FFF79EFFFFE704B080BD000037B5144616
:101A20000846064B6A462146FFF00AFD0446694611
:101A3000002000F0E9F820463EBD0000091C000827
:101A400002E008C8121F08C1002AFAD17047704787
:101A5000002001E001C1121F002AFBD170470000E5
:101A60002DE9FF5F82B00021DDE90430020DDDF8D1
:101A700040B0034318D044F61050A2F2FF32424364
:101A80001514119801281FD0A5EB0B00401C5FEA2C
:101A9000000A4FF000064E4FDFF83891B04650462E
:101AA00015D5CAF1000413E0119801244AA30128B6
:101AB00001D16FEA0B010298119AC0E90031C0E927
:101AC000024206B0BDE8F09FCBF10000DFE704461C
:101AD0000021404A491842EB0450CDE9001012E0C1
:101AE000E00707D032463B4640464946FEF731FC08
:101AF0008046894632463B4610461946FEF729FC89
:101B000006460F466410002CEAD1DDE90401DDE948
:101B10000023BAF1000F06DAFEF71BFC42464B46E3
:101B2000FEF717FC05E0FEF786FC42464B46FEF743
:101B300082FC04460E460022284BFEF703FD03D824
:101B40004FF0FF30014607E00022254B204631468A
:101B5000FEF06CFAFEF7DEFC102409E0002C0ADB34
:101B60000A220023FEF7C4FB039B30321A55641E81
:101B700050EA0102F2D1641C039AC4F11103144427
:101B8000119A012A03D0012208430DD10AE008432B
:101B900004D000204FF0110B119072E7A3EB0B055E
:101BA0006D1E0DE05B4504DD4FF0000205F10105FF
:101BB00004E003DA4FF00002A5F10105002AECD0A1
:101BC00002981199C0E90231C0E9004579E70000A7
:101BD000000014400000F03F300000000000F0431F
:101BE0000000E03F2DE9F041044600251E4617465F
:101BF000880404D405E039462020B0476D1C641EDB
:101C0000F9D52846BDE8F0810A68531C0B601070B6
:101C100070470000241C000800000124B0240000CC
:041C2000501A00084E
:020000040810E2
:1000000030B50B46014600202022012409E021FAE8
:1000100002F59D4205D303FA02F5491B04FA02F5E5
:100020002844151EA2F10102F1DC30BD2DE9FE4F7E
:10003000804681EA0300C00F0C46009021F0004189
:1000400023F00045B8EB0200A94105D24046214605
:1000500090461C460B46024623F00040104347D012
:10006000270DC7F30A00C3F30A510290401A01900A
:1000700040286BDAC3F3130040F4801B00989246CB
:1000800020B10023D2EB030A63EB0B0B0198594616
:10009000C0F14002504600F77FFA06460D46504632
:1000A0005946019A00F079F810EB080061410024EC
:1000B00087EA115284EAE7731A4340D0009A62B388
:1000C000019A012A4FEA075215DC001B61EB02017D
:1000D0004FF0004202EA0752CDE90042001C41F510
:1000E000801132462B4600F775FA03B0BDE8F08F59
:1000F00040462146F9E7001B61EB0201001C41F577
:10010000801300185B412018A2F5001747EB03018C
:1001100040EAD570B6196D4111E06D084FEA360618
:1001200045EAC0754FEA0752001B61EB0201001C53
:1001300041F5801149084FEA30000019514132461B
:100140002B4603B0BDE8F04F00F735BA0098012206
:1001500040000023D0EB020263EBE07300982146DD
:100160004FEAE074B8EB000061EB0401E9E783F0CB
:1001700000435BE781F0004158E7202A04DB203A86
:1001800021FA02F00021704721FA02F3D040C2F1B7
:1001900020029140084319467047202A06DBCB17FE
:1001A000203A41FA02F043EAE07306E041FA02F332
:1001B000D040C2F120029140084319467047000028
:1001C00080B584B040F23041C2F201414C3102911D
:1001D000ADF80600BDF8060002998989884203DD62
:1001E000FFE700200390A5E00298818940898142C1
:1001F00078D1FFE7029948684A89097A11440131A8
:10020000029A1288514300F71BFE00900098029A50
:100210001169BDF8063012885A4300F729FA009890
:10022000BDF806100131029A128801FB0200029902
:100230000A69BDF80630098803FB0121029AB2F869
:100240000CC0BDF80630ACEB030312885A4300F72C
:100250000FFA0098A8B3FFE7029840680078A8B9A1
:10026000FFE70298406880680099029A5268D26855
:10027000891A029A52685288B1FBF2F100EB8100B0
:100280004088029949684988484319E002984068C3
:100290008068029949688988009A029B5B68DB68DC
:1002A000D21A029B5B685B88B2FBF3F2891A00EBFF
:1002B000810030F8020C0299496849884843FFE7F9
:1002C00001E00020FFE70299098890FBF1F0029914
:1002D000488102994868096900F076F90098029906
:1002E00008611AE002980169BDF806200132008811
:1002F00002FB001002990A69BDF80630098803FB69
:100300000121029AB2F80CC0BDF80630ACEB030331
:1003100012885A4300F7ACF9FFE70298818901314E
:10032000818102980169BDF80620008802FB001057
:100330000390FFE7039804B080BD000000000000B8
:1003400080B500F011FA00F0CBF94EF69C70CEF2B9
:100350000000016841F00401016080BD0000000060
:1003600081B08DF8030007208DF802009DF803008E
:10037000902825D0FFE79DF8030000F0F0018901E7
:1003800000F0080041EA500040F2200CC5F6020CD3
:1003900050F80C009DF8032002F007039B000F218A
:1003A000994088439DF802109940084302F0F001FB
:1003B000042303EA520242EA811141F80C00FFE7EC
:1003C00001B070470000000080B582B08DF80700D2
:1003D00002208DF8060000208DF805008DF804102D
:1003E00001208DF803009DF80700902800F0B580EB
:1003F000FFE79DF80600D8BBFFE79DF8070000F077
:10040000F000800140F2000EC5F6020E5EF800001A
:100410009DF8072002F00F035B004FF0030C0CFA6D
:1004200003F188439DF806109940084302F0F0015B
:1004300089014EF801009DF8070000F0F0008001EE
:1004400040F20C0EC5F6020E5EF800009DF8072083
:1004500002F00F035B000CFA03F188439DF80310D0
:100460009940084302F0F00189014EF8010073E061
:100470009DF8070000F0F000800140F2000EC5F684
:10048000020E5EF800209DF8073003F00F004000D8
:100490004FF0030C0CFA00F122EA01019DF806204E
:1004A00002FA00F0084303F0F00189014EF8010060
:1004B0009DF8070000F0F000800140F2040EC5F640
:1004C000020E5EF800009DF8072002F00F030121E4
:1004D000994088439DF805109940084302F0F001C7
:1004E00089014EF801009DF8070000F0F00080013E
:1004F00040F2080EC5F6020E5EF800009DF80720D7
:1005000002F00F035B000CFA03F188439DF804101E
:100510009940084302F0F00189014EF801009DF86E
:10052000070000F0F000800140F20C0EC5F6020E4C
:100530005EF800009DF8072002F00F035B000CFA44
:1005400003F188439DF803109940084302F0F0013D
:1005500089014EF80100FFE7FFE702B080BD00000F
:1005600080B582B001900198818800F791F902B0BE
:1005700080BD0000000000004EF62450CEF20000C6
:10058000016821F4803101604EF69450CEF20000F3
:10059000016821F0010101607047000000000000C7
:1005A00082B04FF000600190002000900198009907
:1005B00040F2FF12914308434EF60851CEF200017B
:1005C000086002B07047000084B003900291029866
:1005D00008B9FFE736E002980399CA68801A49888B
:1005E000B0FBF1F0019003988068019900EB810065
:1005F00040880090019800990844039989888842AE
:1006000019D0FFE7039880680199009A114410F807
:10061000210001280ED1FFE7039880680199009A14
:100620000A4400EB8202528800EB810041881144A9
:100630004180FFE7FFE7039880680199012200F8F5
:100640002120FFE704B0704785B0DDF814C00490A6
:1006500000208DF80F00ADF80C10ADF80A200193C2
:100660000199049A91609DF80F10049A1170BDF8D9
:100670000C10049A5180BDF80A10049A91800599D3
:10068000049AD1600090FFE70098BDF80A108842F4
:100690000ADAFFE701980099012200F82120FFE71C
:1006A000009801300090EFE79DF80F0028B9FFE7B0
:1006B000BDF80A00019948800EE09DF80F0001285E
:1006C00008D1FFE7BDF80A00019901EB800121F88C
:1006D000020C00E000E0FFE705B0704700000000FA
:1006E00083B04EF68450CEF2000000210160BFF3CB
:1006F0004F8F4EF68050CEF20000006802900298B4
:10070000C0F34E300190FFE70298C0F3C90000909B
:10071000FFE701980099890760F34D114EF660706C
:10072000CEF200000160FFE70098411E0091002812
:10073000EFD1FFE7FFE70198411E01910028E3D1C7
:10074000FFE7BFF34F8F4EF61450CEF20000016862
:1007500041F480310160BFF34F8FBFF36F8F03B05F
:100760007047000000000000BFF34F8FBFF36F8F92
:100770004EF65070CEF2000000210160BFF34F8FA3
:10078000BFF36F8F4EF61450CEF20000016841F4B3
:1007900000310160BFF34F8FBFF36F8F70470000D0
:1007A000BFF34F8FBFF36F8F4EF65070CEF2000045
:1007B00000210160BFF34F8FBFF36F8F4EF61450CF
:1007C000CEF20000016841F400310160BFF34F8FA9
:1007D000BFF36F8F7047000080B584B0A0200390F6
:1007E00005200290022001900420009044F2004075
:1007F000C5F602000121016044F21040C5F6020076
:100800000022026044F21840C5F60200026044F281
:100810001C40C5F60200026044F22040C5F602000A
:10082000026044F22840C5F60200026044F22C4007
:10083000C5F60200026044F26040C5F602000260A4
:1008400048F20810C5F200100160FFF779FD039827
:100850000299019A009B00F7C7FBFFF7A1FE04B0C5
:1008600080BD00000000000080B584B0EFF3108070
:1008700072B6039040F23040C2F201408168C26813
:10088000013142F100028160C26001688A6ACB6A6C
:10089000013243F100038A62CB62C06D01900020F7
:1008A0000290FFE7029840F23041C2F20141B1F8F4
:1008B0005810884217DAFFE70198029900EB0110FF
:1008C0008168C06840F23042C2F201429368D26847
:1008D000591A72EB000001D2FFE705E0FFE702982A
:1008E00001300290DEE7FFE700200090FFE700986C
:1008F0000299884217DAFFE70198006804218173A2
:10090000019800688069406828B9FFE7019800688D
:1009100081694860FFE70020FFF6CAFEFFE7009804
:1009200001300090E3E700F053FB62B64EF604504E
:10093000CEF20000016841F080510160BFF34F8F9B
:10094000BFF36F8F04B080BDFFE700F027FD40F2DA
:100950003040C2F201400068826AC36A41F6BC318D
:10096000C0F6100100F7F4FF00F01AFD00F01AFDC8
:10097000EBE700000000000070B586B00A20ADF87B
:10098000160040F22040C2F2014004904EF634704E
:10099000CEF20000016841F000410160016821F0E1
:1009A0008041016000F008FC4EF62450CEF20000B9
:1009B000016841F480210160016841F40031016067
:1009C000016841F48031016000246FF00B000021C8
:1009D00000F0CEFB6FF00A00002100F0C9FB6FF0C1
:1009E0000900002100F0C4FB6FF00400002100F0BA
:1009F000BFFB6FF00100032100F0BAFB4FF0FF30A6
:100A0000022100F0B5FB9DF8160040F23045C2F21D
:100A100001452871EC60AC600498A864012028743A
:100A20002020A8822820E8822C83EC61AC762C2040
:100A30002884A86C6862052085F82800A86CDC2151
:100A400000F7FEF92863286B98B3FFE740F23040C7
:100A5000C2F20140806C007898B9FFE740F2304064
:100A6000C2F20140016B826C9368D668891B528880
:100A7000B1FBF2F103EB81014988806C4088484367
:100A800016E040F23040C2F20140816C8A688988E9
:100A9000036B866CF5685B1B7688B3FBF6F3C91AAB
:100AA00002EB810131F8021C806C40884843FFE76B
:100AB00001E00020FFE748F6A331CBF62E21A0FB92
:100AC0000101480940F23044C2F20144608500202F
:100AD000A0851020A4F84C00A06C20650A2084F8A2
:100AE0005400A06CA02100F7ABF9E065E06D98B36D
:100AF000FFE740F23040C2F20140806C007898B9C4
:100B0000FFE740F23040C2F20140816CC26D8B6859
:100B1000CE68921B4988B2FBF1F103EB8101498851
:100B2000806C4088484316E040F23040C2F20140F9
:100B3000816C8A688988836CC66DDD68761B5B88EA
:100B4000B6FBF3F3C91A02EB810131F8021C806C89
:100B500040884843FFE701E00020FFE7000940F23A
:100B60003044C2F20144A4F856000025A4F85850BD
:100B700004F114000021FFF68BFE03900398FF267A
:100B8000067003980C210181039814214181039878
:100B90008581039805610398012181730398602280
:100BA000828203986822C282039805830398C561F4
:100BB000039881760398456003980830FFF7D0FCCE
:100BC000029003981430FFF7CBFC01900198467314
:100BD0000198067301984FF47F418160A06C4FF437
:100BE000007100F72DF9019948610198416901F5FB
:100BF0000071016001988573019840F64911C0F6B3
:100C00001001416003980199886102980199C861B7
:100C10000198456205620198C56285620198029952
:100C2000486001988068029908600398029988607A
:100C3000019820604EF21000CEF20000016841F0F1
:100C400004010160016841F002010160BDF8160075
:100C500041F68021C0F2060148434EF21401CEF263
:100C600000010860019840F29041C2F20141086021
:100C700006B070BD0000000040F29445C2F201458C
:100C8000286840F2A447C2F201473A6840F2A846F9
:100C9000C2F201463368022100F092FB286800F09E
:100CA000A1FB00F07BFB2868826AC36A41F66F31C2
:100CB000C0F6100100F74CFE41F6CB31C0F6100132
:100CC00000F746FE00F06CFB2868142100F718FDC1
:100CD00000F064FB41F6E131C0F6100100F738FE88
:100CE0002868427B41F65734C0F61004214600F7CD
:100CF0002FFE00F055FB28683A68012100F08AFBBE
:100D00002868052100F7FCFC28683268012100F002
:100D100081FB00F043FB2868427B214600F718FE68
:100D200000F03EFBFFE700F039FB40F29440C2F2D6
:100D300001400068826AC36A41F69831C0F610012A
:100D400000F706FE00F02CFB00F02CFBEBE70000A8
:100D500041F6D631C0F6100100F7FAFD40F29C448E
:100D6000C2F2014420680A2100F7CAFC41F6EE31C4
:100D7000C0F6100100F7ECFD206840F2A441C2F279
:100D800001410A6840F2A841C2F201410B68022108
:100D900000F016FBFFE740F29C40C2F20140006801
:100DA00000F02CFB98B9FFE700F0F8FA41F6873124
:100DB000C0F6100100F7CCFD00F0F2FA40F29C40C2
:100DC000C2F201400068012100F79AFCE3E700F05D
:100DD000E5FA41F67B31C0F6100100F7B9FD00F0ED
:100DE000DFFAFFE700F0DAFA40F29C44C2F2014475
:100DF0002068826AC36A41F6AA31C0F6100100F782
:100E0000A7FD00F0CDFA2068012100F779FCE9E7A1
:100E100044F21C40C4F2000000684009C00700B161
:100E2000FFE744F21840C4F20000018841F00801D5
:100E3000018070470000000080B584B041F20000DE
:100E4000C4F2010003904FF4E13102910399814211
:100E500009D1FFE702984EF20011C0F2F551B1FB43
:100E6000F0F0019023E0039844F20041C4F2000145
:100E7000884209D1FFE702984EF20011C0F2F55105
:100E8000B1FBF0F0019011E0039844F60001C4F2C8
:100E90000001884209D1FFE702984EF20011C0F22A
:100EA000F551B1FBF0F00190FFE7FFE7FFE7039892
:100EB00041F20001C4F2010188421FD1FFE744F270
:100EC000D840C5F60200016841F00101016044F21A
:100ED000F040C5F60200016841F0100101600920F0
:100EE0000121FFF771FA0A200021FFF76DFA0920AE
:100EF000FFF736FA0A20FFF733FA4FE0039844F27F
:100F00000041C4F2000188421FD1FFE744F2D840FB
:100F1000C5F60200016841F00101016044F2E840B9
:100F2000C5F60200016841F4003101600220012190
:100F3000FFF74AFA03200021FFF746FA0220FFF7E5
:100F40000FFA0320FFF70CFA27E0039844F600019C
:100F5000C4F2000188421FD1FFE744F2D840C5F631
:100F60000200016841F00201016044F2E840C5F668
:100F70000200016841F4802101601A200121FFF77D
:100F800023FA1B200021FFF71FFA1A20FFF7E8F9C8
:100F90001B20FFF7E5F9FFE7FFE7FFE7019803995B
:100FA000C8600398016821F400410160039801685A
:100FB00041F0040101600398016841F008010160FB
:100FC0000398016841F00101016004B080BD000098
:100FD00084B041F20000C4F20100039041F6C43035
:100FE000C0F6100002900620019000200090FFE75C
:100FF00000980199884212D2FFE702980099405C5C
:1010000003990885FFE70398C0698009C00708B9FC
:10101000FFE7F8E7FFE7009801300090E8E704B049
:10102000704700000000000083B040F23040C2F280
:101030000140C0690290FFE70298406888B9FFE765
:10104000029850B1FFE7029840F23041C2F20141EC
:10105000C98A084450F8080C01E00020FFE702901C
:10106000EAE702984068019001980021817340F2FC
:101070003040C2F2014000680199884217D0FFE772
:1010800040F23040C2F201400068807B40B9FFE787
:1010900040F23040C2F20140006804218173FFE752
:1010A000019840F23041C2F201410860FFE7019827
:1010B00038B1FFE701980299C98A084450F8080C32
:1010C00001E00020FFE70090FFE7019800998842C7
:1010D00014D0FFE70098807B042801D1FFE70EE0E1
:1010E000009838B1FFE700980299C98A084450F87F
:1010F000080C01E00020FFE70090E6E7FFE700981A
:10110000807B042807D0FFE70098807B18B1FFE7B9
:1011100000200090FFE7009802994860019803B012
:10112000704700000000000083B0029040F2000011
:10113000C2F20140019000200090FFE70198009961
:10114000405C90B1FFE701980099405C02990885E6
:10115000FFE70298C0698009C00708B9FFE7F8E710
:10116000FFE7009801300090E8E703B07047000007
:1011700082B0ADF806000091BDF9060000280AD43F
:10118000FFE700980001BDF906104EF20042CEF2D2
:10119000000288540BE000980001BDF8061001F031
:1011A0000F014EF61452CEF200028854FFE702B04F
:1011B000704700000000000083B0022002900298F7
:1011C00000F0070000904EF60C50CEF200000168CF
:1011D000019101994FF6FF02114001910199009A86
:1011E00041EA02210022C0F2FA5211430191019911
:1011F000016003B07047000086B000200590FFF743
:10120000EBFA44F2E040C5F60200016840F2FF321A
:1012100011430160FFF7C4FAFFF6A2FEFFF70CFED0
:1012200041F6FB31C0F6100100F792FBFFF608FD16
:10123000FFF6C6FDFFF7A0FB40F67941C0F61001AE
:10124000FF2000F725F840F29445C2F201452860DE
:1012500041F69101C0F60001FF2000F719F840F2B5
:101260009841C2F20141086040F65151C0F61001A8
:10127000012000F70DF840F29C46C2F201463060B2
:1012800041F6C101C0F60001012000F701F840F26B
:10129000A041C2F2014108602868002100F084F8F2
:1012A00040F2A444C2F2014420602868002100F00A
:1012B0007BF840F2A847C2F201473860226841F645
:1012C0004A34C0F61004214600F742FB3A68214632
:1012D00000F73EFB43F23330C3F6F37003904FF058
:1012E0008040029008200490072001900620009082
:1012F000022003210422052300F049F8286800F7A2
:10130000DBF9306800F7D8F900F002F8FFE7FEE7F4
:10131000EFF3148040F0020080F314884648006820
:10132000016880F3098841684448026842F001027C
:101330000260EFF3148040F0010080F314888F46C0
:1013400072B6EFF309801EF0100F08BF20ED108A6F
:10135000734620E9F80F384909680860FFF764FE12
:101360000168B1E8F80F9E461EF0100F08BFB1ECFF
:10137000108A81F3098862B670471EF0040F0CBF13
:10138000EFF30880EFF30980016900F701BBEC4639
:1013900064DF704700DF704701DF704702DF70478E
:1013A00003DF704704DF70474FF0000410B4EC46D1
:1013B00005DF70474FF0010410B4EC4605DF7047BD
:1013C0004FF0020410B4EC4605DF70474FF0030401
:1013D00010B4EC4605DF70474FF0040410B4EC463F
:1013E00005DF70474FF0050410B4EC4605DF704789
:1013F0004FF0060410B4EC4605DF70474FF00704C9
:1014000010B4EC4605DF70474FF0080410B4EC460A
:1014100005DF70474FF0090410B4EC4605DF704754
:101420004FF00A0410B4EC4605DF70474FF00B0490
:1014300010B4EC4605DF70473004012410E000E0F2
:101440002DE9FF4F95B09B468946064600250FE2E1
:10145000252877D100242746F84A0121059400E089
:10146000044316F8013F203B01FA03F01042F7D184
:1014700030782A2811D06FF02F033078A0F1300295
:10148000092A16D8059A44F0020402EB820203EB03
:1014900042021044761C0590EFE759F8042B0592A0
:1014A000002A03DA504244F40054059044F0020448
:1014B000761C30782E2816D116F8010F44F004045B
:1014C0002A280DD06FF02F023078A0F13003092BBD
:1014D00009D807EB870302EB4303C718761CF3E731
:1014E00059F8047B761C30786C280FD006DC4C2829
:1014F00017D068280DD06A2814D104E0742810D0C1
:101500007A280FD10DE044F400140AE044F480146A
:1015100001E044F440147278824202D104F5801450
:10152000761C761C307866280BD013DC582877D0D0
:1015300009DC002875D04528F6D04628F4D0472885
:101540001AD19DE118E0632835D0642879D0652848
:1015500012D195E1702873D008DC6728F1D0692892
:101560006FD06E280DD06F2806D1B5E073282CD02F
:10157000752875D0782874D05A46179990476D1CF5
:1015800075E1C4F30250022809D003280DD0D9F820
:10159000001004280DD00D6009F1040967E1D9F8A5
:1015A0000010EA17C1E90052F6E7D9F800100D80E3
:1015B000F2E70D70F0E719F8041B8DF80010002019
:1015C0008DF80100EA46012003E059F804AB4FF022
:1015D000FF3061074FF0000102D40DE008F1010176
:1015E0008846B9420FDA8045F8DB1AF8081000295E
:1015F000F4D108E008F1010188468142FADB1AF8CB
:1016000008100029F6D105985B46A0EB0807214693
:101610003846179A00F082FA284400EB080507E0E4
:101620004DE029E10DE01AF8010B5A461799904751
:10163000B8F10108F7D25B4621463846179A13E104
:1016400042E00A220092C4F302524FF0000A022A3A
:1016500008D059F804CB032A4FEAEC710AD00DE008
:1016600029E02AE009F1070121F00702F2E802C1AE
:10167000914609E00FFA8CFC4FEAEC71042A03D181
:101680004FFA8CFC4FEAEC71002907DA0A46002178
:10169000DCF1000C61EB02012D2202E0220504D5F1
:1016A0002B228DF80420012203E0E20701D0202242
:1016B000F7E7904659E00A2102E010220DE01021E0
:1016C0004FF0000A00910BE010224FF0000A44F0A6
:1016D00004040827009203E008224FF0000A009259
:1016E000C4F30252022A05D059F804CB0021032A80
:1016F00008D009E009F1070121F00702F2E802C170
:10170000914605E01FFA8CFC042A01D10CF0FF0C75
:101710004FF00008220728D5702806D0009B83F0E0
:10172000100353EA0A0305D00EE040228DF804208E
:10173000012208E05CEA010206D030228DF8042084
:101740008DF8050002229046009B83F0080353EABF
:101750000A030AD15CEA010201D1620705D53022F1
:101760008DF804204FF001087F1E582804D034A0C3
:1017700003900EA802900DE036A0F9E753466046AC
:10178000009AFEF6B5FD84460398825C0298401EDE
:10179000029002705CEA0100F0D1029806A9081AD2
:1017A00000F1200A600702D524F4803400E001270C
:1017B000574502DDA7EB0A0000E0002000EB0A011C
:1017C000009005984144401A0590E00306D45B461A
:1017D0002146179A059800F0A1F90544002706E074
:1017E00001A85A46C05D179990476D1C7F1C47455C
:1017F000F6DBE0030CD55B462146179A059800F00E
:101800008DF9054404E030205A46179990476D1C25
:101810000099481E00900029F5DC08E00298029922
:101820005A460078491C0291179990476D1CBAF1ED
:101830000001AAF1010AF1DC65E1000009280100BC
:101840003031323334353637383961626364656636
:1018500000000000303132333435363738394142F8
:10186000434445460000000000F7BCF90544761CDF
:10187000307800287FF4ECAD19B02846BDE8F08F31
:10188000620700D4062709F1070222F0070CFCE8E2
:101890000223E14603F000485FEA080C02D00FF291
:1018A000702C0DE05FEA045C02D50FF2682C07E0B3
:1018B0005FEAC47C02D00FF2602C01E0AFF2700C42
:1018C0004FF0FF3823F00043CDF850C065280CD00E
:1018D00006DC452809D046281DD047283DD13DE0EB
:1018E000662818D067287ED138E00021112F01DB4F
:1018F000112000E0781CCDE9000106A90EA800F730
:10190000AFF8DDE90F010E9A03910021009207F173
:10191000010A04914DE04FF000400097CDE901101D
:1019200006A90EA800F79CF8DDE90F0203920E9BB2
:1019300011990022DDF80CA00093049211B9791CD2
:1019400000EB010AB7EB0A0004D4C0F1FF3007F145
:10195000010A0490AAEB0700019044E0012F00DA8D
:1019600001270021112F01DD112000E03846CDE9CB
:10197000000106A90EA800F773F8DDE90F010E9A21
:101980000391002104910092BA4621070CD40399D7
:10199000514500DA8A46BAF1010F05DD009AAAF135
:1019A0000101515C302908D0B84202DA10F1040F6D
:1019B00006DA0121CDE9011015E0AAF10101E9E7FC
:1019C000002805DC049901440491AAEB000102E01F
:1019D000411C514500DD8A460499401A401C019083
:1019E0004FF000400290200704D40198504501DBDD
:1019F000CDF8048000208DF84F0002980DF14F07BC
:101A0000B0F1004F25D02B200E9002984FF0020825
:101A100000280CDA404202902D200E9007E00A21A7
:101A20000298FEF7EDFA3031029007F8011DB8F187
:101A30000001A8F10108F2DC02980028EFD1791E1C
:101A40000E980870307800F0200040F0450007F84C
:101A5000020D12A8C01B00F107081498007800B10D
:101A6000012000EB0A01019801EBE0710598414467
:101A7000401A401E0590E00306D45B462146179AA3
:101A8000059800F04BF805441498007818B15A46B0
:101A9000179990476D1CE00324D55B462146179AA1
:101AA000059800F03BF805441CE00498002807DB8B
:101AB000DDE90301884203DD0098405C179901E0ED
:101AC000179930205A469047049805F10105401CAB
:101AD00004900198401E019004D12E205A46179977
:101AE00090476D1CBAF10001AAF1010ADDDC05E0A6
:101AF00017F8010B5A46179990476D1CB8F1000171
:101B0000A8F10108F4DC5B462146179A0598ABE67C
:101B10002D0000002B000000200000002DE9F04106
:101B2000044600251E469046C80301D5302700E034
:101B30002027880404D505E041463846B0476D1C8F
:101B4000641EF9D52846BDE8F0814D757465784965
:101B5000443A25640D0A0054313A726563656E7427
:101B6000207072696F726974793A25640D0A0054A5
:101B7000313A6C6F636B65640D0A0054333A6C6FD5
:101B8000636B65640D0A0054333A6C6F636B2066B7
:101B900061696C65640D0A0054313A256C640D0A64
:101BA0000054323A256C640D0A0054333A256C64B3
:101BB0000D0A0054343A256C640D0A00533A256C22
:101BC000640D0A007469636B0D0A0054313A736C3A
:101BD0006565700D0A0054333A736C6565700D0AC3
:101BE0000054313A77616B652075700D0A005433EB
:101BF0003A77616B652075700D0A005265616479F2
:041C00000D0A0000C9
:040000050800029954
:00000001FF
