:020000040800F2
:1000000048100120AD020008D1020008D302000808
:1000100051021008D7020008D902000800000000B1
:10002000000000000000000000000000DB020008EB
:10003000DD02000800000000DF020008E102000805
:10004000E3020008E3020008E3020008E3020008FC
:10005000E3020008E3020008E3020008E3020008EC
:10006000E3020008E3020008E3020008E3020008DC
:10007000E3020008E3020008E3020008E3020008CC
:10008000E3020008E3020008E3020008E3020008BC
:10009000E3020008E3020008E3020008E3020008AC
:1000A000E3020008E3020008E3020008E30200089C
:1000B000E3020008E3020008E3020008E30200088C
:1000C000E3020008E3020008E3020008E30200087C
:1000D000E30200089906100829060008C106100866
:1000E000E3020008E302000800000000E302000849
:1000F000E3020008E3020008E3020008E30200084C
:10010000E3020008E3020008E3020008E30200083B
:10011000E3020008E3020008E3020008E30200082B
:10012000E3020008E3020008E3020008E30200081B
:10013000E3020008E3020008E3020008E30200080B
:1001400000000000000000000000000000000000AF
:10015000E3020008E3020008E3020008E3020008EB
:10016000E3020008E3020008E3020008E3020008DB
:10017000E3020008E3020008E302000800000000B8
:10018000E3020008E3020008E3020008E3020008BB
:10019000E3020008E3020008E3020008E3020008AB
:1001A000E3020008E3020008E3020008E30200089B
:1001B000E3020008E3020008E3020008E30200088B
:1001C000E3020008E3020008E3020008E30200087B
:1001D000E3020008E3020008E3020008E30200086B
:1001E000E3020008E3020008E3020008E30200085B
:1001F000E3020008E3020008E3020008E30200084B
:10020000E3020008E3020008E3020008E30200083A
:10021000E3020008E3020008E3020008E30200082A
:10022000E3020008E3020008E30200080000000007
:10023000E3020008E302000800000000E3020008F7
:10024000E3020008E3020008E3020008E3020008FA
:10025000E3020008E3020008E3020008E3020008EA
:10026000E3020008E3020008E3020008E3020008DA
:10027000E3020008E3020008E302000800000000B7
:10028000E302000800000000E30200080000000094
:1002900000000000E3020008DFF80CD000F028F8AE
:1002A00000480047E907000848100120DFF8340043
:1002B000016841F470010160BFF34F8FDFF828003F
:1002C000016821F040410160BFF36F8F074800478C
:1002D000FEE7FEE7FEE7FEE7FEE7FEE7FEE7FEE7F6
:1002E000FEE7FEE788ED00E034EF00E09902000849
:1002F000064C074D06E0E06840F0010394E8070073
:1003000098471034AC42F6D3FFF7CAFF4008000804
:1003100050080008D2B201E000F8012B491EFBD2C0
:1003200070470022F6E710B513460A460446194600
:10033000FFF7F0FF204610BD80B500F059F900F03E
:1003400013F94EF69C70CEF20000016841F00401F2
:10035000016080BD0000000082B0019000208DF897
:100360000300FFE70198012809D0FFE70198400842
:1003700001909DF8030001308DF80300F2E79DF82D
:10038000030002B0704700004EF69450CEF2000019
:10039000052101604EF62450CEF20000016841F4C0
:1003A0008031016070470000B0B582B00124009434
:1003B0004FF000504FF400310122012300F03CF8CF
:1003C00000944FF010504FF400210222012300F05E
:1003D00033F800944FF040504FF4002103220123E2
:1003E00000F02AF800944FF060504FF4803104225E
:1003F000012300F021F8002500954FF0C0404FF098
:1004000080610522002300F017F800944FF040406F
:100410004FF000710622012300F00EF800954FF016
:1004200000404FF080510722002300F005F802B091
:10043000B0BD00000000000080B588B0DDF828C025
:1004400006900591049203208DF80F0000208DF88E
:100450000E008DF80D308DF80CC002908DF807005D
:100460009DF81400C00618B9FFE7059820B9FFE70A
:1004700001208DF81F0041E00598FFF76DFF01385E
:100480008DF80700FFF0BCFE04984EF69851CEF2AE
:100490000001086006984EF69C51CEF200010860FB
:1004A00002989DF80F1040EA0160029002989DF8B2
:1004B0000E1040EA814002909DF80D00029941EA39
:1004C000404002909DF80C00029941EA00400290E1
:1004D00002989DF8071040EA41000290029840F00F
:1004E0000100029002984EF6A051CEF20001086081
:1004F000FFF74AFF00208DF81F00FFE708B080BD1E
:10050000B0B548F20004C3F6000420464FF40041A1
:10051000FFF707FF40F20005C2F20105EC634FF45C
:100520000070A5F840004020A5F842006C64B5F8C2
:100530004000800000F1D8F84FF0005028604FF4E0
:100540008074AC80EC80A888800000F1CDF8A860B1
:100550004FF01050E8602C826C82288A800000F1F5
:10056000C3F86861B0BD000083B04EF68450CEF28F
:10057000000000210160BFF34F8F4EF68050CEF295
:100580000000006802900298C0F34E300190FFE72F
:100590000298C0F3C9000090FFE70198009989070D
:1005A00060F34D114EF66070CEF200000160FFE77F
:1005B0000098411E00910028EFD1FFE7FFE7019866
:1005C000411E01910028E3D1FFE7BFF34F8F4EF6A4
:1005D0001450CEF20000016841F480310160BFF395
:1005E0004F8FBFF36F8F03B0704700000000000013
:1005F000BFF34F8FBFF36F8F4EF65070CEF20000F7
:1006000000210160BFF34F8FBFF36F8F4EF6145080
:10061000CEF20000016841F400310160BFF34F8F5A
:10062000BFF36F8F7047000044F21C40C4F200001B
:1006300000684009C00700B1FFE744F21840C4F267
:100640000000018841F008010180704700000000AF
:1006500080B584B041F20000C4F2010003904FF471
:10066000E13102910399814209D1FFE702984EF2EC
:100670000011C0F2F551B1FBF0F0019023E00398B6
:1006800044F20041C4F20001884209D1FFE7029818
:100690004EF20011C0F2F551B1FBF0F0019011E003
:1006A000039844F60001C4F20001884209D1FFE733
:1006B00002984EF20011C0F2F551B1FBF0F001903A
:1006C000FFE7FFE7FFE7039841F20001C4F20101F1
:1006D00088421FD1FFE744F2D840C5F60200016806
:1006E00041F00101016044F2F040C5F602000168EA
:1006F00041F01001016009200121FFF0B5FC0A2042
:100700000021FFF0B1FC0920FFF07AFC0A20FFF085
:1007100077FC4FE0039844F20041C4F200018842A4
:100720001FD1FFE744F2D840C5F60200016841F04E
:100730000101016044F2E840C5F60200016841F49D
:100740000031016002200121FFF08EFC0320002116
:10075000FFF08AFC0220FFF053FC0320FFF050FC66
:1007600027E0039844F60001C4F2000188421FD13B
:10077000FFE744F2D840C5F60200016841F00201EB
:10078000016044F2E840C5F60200016841F48021AE
:1007900001601A200121FFF067FC1B200021FFF0FF
:1007A00063FC1A20FFF02CFC1B20FFF029FCFFE764
:1007B000FFE7FFE701980399C8600398016821F4F7
:1007C000004101600398016841F004010160039851
:1007D000016841F0080101600398016841F00101DE
:1007E000016004B080BD000082B000200190FFF0E5
:1007F00093FD44F2E040C5F60200016840F2FF328A
:1008000011430160FFF06CFDFFF026FDFFF020FFBB
:10081000FFF71EFFFFF7C8FDFFF772FEFFE7FEE7D9
:1008200002E008C8121F08C1002AFAD170477047B9
:10083000002001E001C1121F002AFBD17047000017
:10084000500800080000012048100000300800088F
:020000040810E2
:1000000081B08DF8030007208DF802009DF80300F1
:10001000902825D0FFE79DF8030000F0F00189014A
:1000200000F0080041EA500040F2200CC5F6020C36
:1000300050F80C009DF8032002F007039B000F21ED
:10004000994088439DF802109940084302F0F0015E
:10005000042303EA520242EA811141F80C00FFE74F
:1000600001B070470000000080B582B08DF8070035
:1000700002208DF8060000208DF805008DF8041090
:1000800001208DF803009DF80700902800F0B5804E
:10009000FFE79DF80600D8BBFFE79DF8070000F0DA
:1000A000F000800140F2000EC5F6020E5EF800007E
:1000B0009DF8072002F00F035B004FF0030C0CFAD1
:1000C00003F188439DF806109940084302F0F001BF
:1000D00089014EF801009DF8070000F0F000800152
:1000E00040F20C0EC5F6020E5EF800009DF80720E7
:1000F00002F00F035B000CFA03F188439DF8031034
:100100009940084302F0F00189014EF8010073E0C4
:100110009DF8070000F0F000800140F2000EC5F6E7
:10012000020E5EF800209DF8073003F00F0040003B
:100130004FF0030C0CFA00F122EA01019DF80620B1
:1001400002FA00F0084303F0F00189014EF80100C3
:100150009DF8070000F0F000800140F2040EC5F6A3
:10016000020E5EF800009DF8072002F00F03012147
:10017000994088439DF805109940084302F0F0012A
:1001800089014EF801009DF8070000F0F0008001A1
:1001900040F2080EC5F6020E5EF800009DF807203A
:1001A00002F00F035B000CFA03F188439DF8041082
:1001B0009940084302F0F00189014EF801009DF8D2
:1001C000070000F0F000800140F20C0EC5F6020EB0
:1001D0005EF800009DF8072002F00F035B000CFAA8
:1001E00003F188439DF803109940084302F0F001A1
:1001F00089014EF80100FFE7FFE702B080BD000073
:100200004EF62450CEF20000016821F480310160E6
:100210004EF69450CEF20000016821F00101016019
:10022000704700000000000082B04FF000600190B5
:10023000002000900198009940F2FF12914308437A
:100240004EF60851CEF20001086002B0704700007F
:10025000704700000000000083B04EF68450CEF2DC
:10026000000000210160BFF34F8F4EF61450CEF214
:100270000000016821F480310160BFF34F8F4EF61A
:100280008050CEF20000006802900298C0F34E3019
:100290000190FFE70298C0F3C9000090FFE70198C2
:1002A0000099890760F34D114EF67470CEF200008C
:1002B0000160FFE70098411E00910028EFD1FFE7A1
:1002C000FFE70198411E01910028E3D1FFE7BFF34A
:1002D0004F8FBFF36F8F03B0704700000000000026
:1002E000BFF34F8FBFF36F8F4EF65070CEF200000A
:1002F00000210160BFF34F8FBFF36F8F4EF6145094
:10030000CEF20000016841F400310160BFF34F8F6D
:10031000BFF36F8F7047000080B584B0A0200390BA
:1003200005200290022001900420009044F2004039
:10033000C5F602000121016044F21040C5F602003A
:100340000022026044F21840C5F60200026044F246
:100350001C40C5F60200026044F22040C5F60200CF
:10036000026044F22840C5F60200026044F22C40CC
:10037000C5F60200026044F26040C5F60200026069
:1003800048F20810C5F200100160FFF6D5FF03988F
:100390000299019A009B00F007F8FFF745FF04B0AF
:1003A00080BD00000000000085B00490039102921F
:1003B00001930020ADF802008DF8010044F60C0016
:1003C000C5F60200016821F00401016044F618003E
:1003D000C5F60200016841F440410160FFE744F6C0
:1003E0001800C5F6020000688004002801D4FFE769
:1003F000F5E744F20040C5F60200016841F480319F
:100400000160FFE744F20040C5F6020001680020E9
:100410008903002909D4FFE7BDF8021047F6FF72EF
:1004200000209142B8BF0120FFE7C00730B1FFE7CD
:10043000BDF802000130ADF80200E3E7BDF80200AC
:1004400047F6FF71884204D1FFE701208DF80100D3
:10045000F9E044F22840C5F60200016841F00201CB
:1004600001600399026842EA0111016004980138B1
:1004700044F23041C5F602010A6810430860029850
:100480004FF60062CFF6FF7202EB40200A6810437D
:10049000086001980022CFF6FF7202EB00400A6864
:1004A00010430860086840F08070086044F22C40F7
:1004B000C5F60200016841F00801016001680160B1
:1004C000016841F44031016044F20040C5F6020089
:1004D000016841F080710160FFE744F20040C5F619
:1004E000020000688001002801D4FFE7F5E744F22C
:1004F0002840C5F60200016841F4C831016044F2A9
:100500003840C5F60200016840F2B712114301609D
:10051000016841F400710160016841F0807101607F
:1005200044F22C40C5F602000168016001680160D8
:10053000016841F400210160016841F4001101608B
:1005400044F24C40C5F60200016821F0030101604D
:10055000016841F00201016044F20040C5F602006A
:10056000016841F080610160FFE744F20040C5F698
:10057000020000680001002801D4FFE7F5E744F21B
:100580001840C5F60200016841F0080101600168E9
:10059000016044F21040C5F60200016841F0030119
:1005A0000160FFE744F21040C5F602000068C0F3A6
:1005B000C200ADF80200BDF80200032801D1FFE738
:1005C00000E0EFE742F20000C5F20020016841F0D0
:1005D00002010160016841F02001016044F218400D
:1005E000C5F60200016841F04001016044F21C4080
:1005F000C5F60200016841F040010160016841F464
:100600008061016044F22040C5F60200016841F0BB
:100610004001016044F20040C5F60200016841F06B
:100620008001016044F2F440C5F60200016841F027
:100630000201016040F22040C5F60000016841F06F
:1006400001010160FFE705B07047000000000000F5
:1006500081B04EF21400CEF200006FF07F410160D5
:100660004EF21000CEF20000016841F0040101607A
:10067000016841F00101016000200090FFE700984F
:100680000F2805DCFFE7FFE7009801300090F6E750
:1006900001B070470000000041F21C00C4F20100EC
:1006A00000684009C00700B1FFE741F21800C4F23A
:1006B0000100018841F0080101807047000000003E
:1006C00044F61C00C4F2000000684009C00700B1F5
:1006D000FFE744F61800C4F20000018841F0080169
:1006E000018070470000000087B0059040F20000D4
:1006F000C2F201003C30049005980499C988B0FB0F
:10070000F1F202FB110038B9FFE705980499C98896
:10071000B0FBF1F0039007E005980499C988B0FB9D
:10072000F1F001300390FFE700200290FFE702980C
:100730000499898888426BDAFFE7049880680299F7
:1007400000EB8100408800285DD1FFE7029800900F
:1007500000200190FFE701980399884225DAFFE71E
:10076000049880880099401A0399884203DAFFE7C9
:10077000002006904FE004988068029900EB810009
:10078000408850B1FFE704988068029900EB81002F
:10079000408808440138029008E0FFE701980130E2
:1007A0000190029801300290D5E7FFE70198039984
:1007B000884227D1FFE70020019000980290FFE7D0
:1007C00001980399884215DAFFE70398049989682C
:1007D000029A01EB82014880009804998968029A84
:1007E00021F82200FFE701980130019002980130C2
:1007F0000290E5E704980168009AC08802FB0010A7
:10080000069008E0FFE7FFE70298013002908EE7CC
:0C08100000200690FFE7069807B0704734
:040000050800029954
:00000001FF
