:020000040800F2
:10000000782401240100100825001008270010089A
:10001000D90510082B0010082D0010080000000062
:100020000000000000000000000000002F00100889
:1000300031001008000000009F0C1008111100088A
:100040003700100837001008370010083700100874
:100050003700100837001008370010083700100864
:100060003700100837001008370010083700100854
:100070003700100837001008370010083700100844
:100080003700100837001008370010083700100834
:100090003700100837001008370010083700100824
:1000A0003700100837001008370010083700100814
:1000B0003700100837001008370010083700100804
:1000C00037001008370010083700100837001008F4
:1000D0003700100881091008E1130008A909100869
:1000E0003700100837001008000000003700100823
:1000F00037001008370010083700100837001008C4
:1001000037001008370010083700100837001008B3
:1001100037001008370010083700100837001008A3
:100120003700100837001008370010083700100893
:100130003700100837001008370010083700100883
:1001400000000000000000000000000000000000AF
:100150003700100837001008370010083700100863
:100160003700100837001008370010083700100853
:100170003700100837001008370010080000000092
:100180003700100837001008370010083700100833
:100190003700100837001008370010083700100823
:1001A0003700100837001008370010083700100813
:1001B0003700100837001008370010083700100803
:1001C00037001008370010083700100837001008F3
:1001D00037001008370010083700100837001008E3
:1001E00037001008370010083700100837001008D3
:1001F00037001008370010083700100837001008C3
:1002000037001008370010083700100837001008B2
:1002100037001008370010083700100837001008A2
:1002200037001008370010083700100800000000E1
:1002300037001008370010080000000037001008D1
:100240003700100837001008370010083700100872
:100250003700100837001008370010083700100862
:100260003700100837001008370010083700100852
:100270003700100837001008370010080000000091
:1002800037001008000000003700100800000000D0
:100290000000000037001008DFF80CD000F030F943
:1002A00000480047B10B1008782401242DE9F05FC5
:1002B0000546002092469B468846064681464024D5
:1002C0001BE02846414647462246FFF090FF534632
:1002D0005A46C01A914110D311461846224600F0E2
:1002E00021F92D1A67EB01084F4622460120002113
:1002F00000F018F917EB00094E41201EA4F101048B
:10030000DFDC484631462A464346BDE8F09F2DE9EA
:10031000FE4F81EA030404F0004421F00041009400
:100320004FF0000B23F0004350EA01045ED052EA84
:1003300003045BD0C3F30A54C1F30A552C44A4F25E
:10034000F3340194A0FB0254C1F3130141F4801172
:10035000C3F3130343F4801301FB024400FB034E79
:10036000840A970A44EA815447EA8357A4FB076842
:1003700002958D0A05FB07854FEA932C04FB0C546C
:100380002705029D4FEA065847EA1637B5EB0805E0
:100390006EEB070C870E920E47EA811742EA831232
:1003A000A7FB0201B6EB0B0164EB00042B0D43EA43
:1003B0000C335E1844EB1C50DA465146E7FB020151
:1003C000C5F313044FEA0B3343EA14534FEA0432E4
:1003D000019C43EA0603A4F10C040294009CCDE9BD
:1003E00000B4FFF023FF03B0BDE8F08F002001460A
:1003F000F9E72DE9F04D81EA030404F0004B21F008
:10040000004514464FF0000A23F0004150EA05026F
:1004100020D054EA01021DD0C5F30A570246C5F3A5
:100420001303C1F31300C1F30A5640F4801543F4DB
:100430008013A7EB0608101BD64608F2FD3873EBB5
:10044000050002D308F1010801E092185B41B8F100
:10045000000F03DA00200146BDE8F08D00204FF4C4
:100460008011064684460EE0171B73EB050705D383
:10047000121B63EB050306434CEA010C49084FEAE3
:10048000300092185B4150EA0107EDD152EA0300B7
:1004900012D082EA040083EA0501084305D0101B4C
:1004A000AB4106D20122002306E000224FF00043B8
:1004B00002E06FF0010253101AEB06004CEB0851FA
:1004C00010EB0A0041EB0B01BDE8F04DFFF09FBEC1
:1004D00030B5041E71F1000404DB4FF000444042CB
:1004E00064EB0101141E73F1000405DB1C464FF0A0
:1004F0000043524263EB0403994208BF904230BD6F
:10050000064C074D06E0E06840F0010394E8070060
:1005100098471034AC42F6D3FFF7C2FEEC15000842
:10052000FC150008202A04DB203A00FA02F1002022
:1005300070479140C2F1200320FA03F31943904021
:100540007047202A06DBCB17203A41FA02F043EA33
:10055000E07306E041FA02F3D040C2F1200291407C
:10056000084319467047000080B500F0B5FD00F162
:1005700013F94EF69C70CEF20000016841F00401C0
:10058000016080BD0000000080B582B08DF80700DA
:1005900002208DF8060000208DF805008DF804106B
:1005A00001208DF803009DF80700902800F0B58029
:1005B000FFE79DF80600D8BBFFE79DF8070000F0B5
:1005C000F000800140F2000EC5F6020E5EF8000059
:1005D0009DF8072002F00F035B004FF0030C0CFAAC
:1005E00003F188439DF806109940084302F0F0019A
:1005F00089014EF801009DF8070000F0F00080012D
:1006000040F20C0EC5F6020E5EF800009DF80720C1
:1006100002F00F035B000CFA03F188439DF803100E
:100620009940084302F0F00189014EF8010073E09F
:100630009DF8070000F0F000800140F2000EC5F6C2
:10064000020E5EF800209DF8073003F00F00400016
:100650004FF0030C0CFA00F122EA01019DF806208C
:1006600002FA00F0084303F0F00189014EF801009E
:100670009DF8070000F0F000800140F2040EC5F67E
:10068000020E5EF800009DF8072002F00F03012122
:10069000994088439DF805109940084302F0F00105
:1006A00089014EF801009DF8070000F0F00080017C
:1006B00040F2080EC5F6020E5EF800009DF8072015
:1006C00002F00F035B000CFA03F188439DF804105D
:1006D0009940084302F0F00189014EF801009DF8AD
:1006E000070000F0F000800140F20C0EC5F6020E8B
:1006F0005EF800009DF8072002F00F035B000CFA83
:1007000003F188439DF803109940084302F0F0017B
:1007100089014EF80100FFE7FFE702B080BD00004D
:1007200080B586B041F20000C4F20100059040F2AD
:100730006C40C2F201400490059804990A8841F285
:100740007451C0F6000100F05FFE059804994A88D4
:1007500041F28951C0F6000100F056FE0598049957
:100760008A8841F29851C0F6000100F04DFE002049
:100770000390FFE703980499898888421FDAFFE70E
:100780000498039900F07CF90290039A029850F8BB
:10079000043C04994988014451F8081C01910090D7
:1007A00041F2A751C0F6000141F20000C4F201007D
:1007B00000F02AFEFFE7039801300390DAE705987E
:1007C00041F27151C0F6000100F01EFE06B080BD7E
:1007D00080B58AB0089007910898807900284BD19D
:1007E000FFE70798002806D4FFE70798089989884B
:1007F000884203DDFFE7002009908AE008984188DD
:1008000040F21040C2F20140FFF036FF0430069083
:100810000898079900F034F905900898079901396C
:1008200000F02EF904900498069941F8040C0598FC
:100830000699089A5288114441F8080C049840B16E
:10084000FFE706980499089A5288114441F8080C69
:1008500003E0069808998860FFE7059828B1FFE74C
:100860000698059941F8040CFFE708988188013142
:100870008180069809904CE00898418840F2104029
:10088000C2F20140FFF0F8FE043003900898079987
:1008900000F0F6F8029008980799013900F0F0F896
:1008A0000190019818B1FFE7029868B9FFE7039833
:1008B00040F8040C039808994988014441F8080C51
:1008C0000398089988601DE003980199089A528856
:1008D000114441F8080C0198039941F8040C02985E
:1008E0000399089A5288114441F8080C0398029918
:1008F00041F8040C079820B9FFE70398089988602D
:10090000FFE7FFE70898818801318180039809900B
:10091000FFE709980AB080BD80B582B040F26C4014
:10092000C2F20140019001988188FFF751FF02B0A7
:1009300080BD00000000000080B588B040F26C402F
:10094000C2F20140079002200690079880790028A3
:1009500047D1FFE70698002806D4FFE706980799D5
:100960008988884201DBFFE785E00798069900F057
:1009700087F80590059820B1FFE7059850F8040C1A
:1009800001E00020FFE70490059838B1FFE70598E3
:1009900007994988084450F8080C01E00020FFE757
:1009A0000390049840B1FFE703980499079A52888E
:1009B000114441F8080C03E0039807998860FFE7A9
:1009C000039828B1FFE70498039941F8040CFFE766
:1009D00007988188013981800598043800F0B4F9BE
:1009E00049E00798808808B9FFE744E0079806992E
:1009F00000F046F80290029820B1FFE7029850F804
:100A0000040C01E00020FFE70190029838B1FFE7F5
:100A1000029807994988084450F8080C01E0002022
:100A2000FFE7009000980199079A5288114441F815
:100A3000080C0198009941F8040C069820B9FFE7CA
:100A4000009807998860FFE701980299884205D0CD
:100A5000FFE700980299884204D1FFE70798002138
:100A60008160FFE707988188013981800298043806
:100A700000F06AF9FFE708B080BD00000000000048
:100A800088B00690059106988079C0BBFFE705986D
:100A9000002806D4FFE7059806998988884203DB79
:100AA000FFE70020079074E0069818B1FFE706986A
:100AB000806801E00020FFE7049000200390FFE73A
:100AC00003980599884216DAFFE7049838B1FFE7E2
:100AD000049806994988084450F8080C01E0002061
:100AE000FFE70490049808B9FFE705E0FFE70398E3
:100AF00001300390E4E7FFE70498079049E0069887
:100B0000808818B9FFE70020079042E0069818B1E6
:100B1000FFE70698806801E00020FFE70290059853
:100B200000281BD4FFE700200190FFE701980599FA
:100B3000884212DAFFE7029838B1FFE70298069977
:100B40004988084450F8080C01E00020FFE70290B3
:100B5000FFE7019801300190E8E717E000200090DE
:100B6000FFE70098059988420FDDFFE7029820B162
:100B7000FFE7029850F8040C01E00020FFE7029024
:100B8000FFE7009801380090EBE7FFE70298079035
:100B9000FFE7079808B0704782B0019000208DF8F9
:100BA0000300FFE70198012809D0FFE701984008FA
:100BB00001909DF8030001308DF80300F2E79DF8E5
:100BC000030002B0704700004EF62450CEF2000041
:100BD000016821F4803101604EF69450CEF200009D
:100BE000016821F001010160704700000000000071
:100BF000B0B582B0012400944FF000504FF40031A2
:100C00000122012300F03CF800944FF010504FF403
:100C100000210222012300F033F800944FF04050ED
:100C20004FF400210322012300F02AF800944FF032
:100C300060504FF480310422012300F021F8002598
:100C400000954FF0C0404FF080610522002300F076
:100C500017F800944FF040404FF000710622012336
:100C600000F00EF800954FF000404FF08051072241
:100C7000002300F005F802B0B0BD00000000000045
:100C800080B588B0DDF828C0069005910492032055
:100C90008DF80F0000208DF80E008DF80D308DF8C6
:100CA0000CC002908DF807009DF81400C00618B91A
:100CB000FFE7059820B9FFE701208DF81F0041E00C
:100CC0000598FFF769FF01388DF80700FFF77CFFF3
:100CD00004984EF69851CEF20001086006984EF640
:100CE0009C51CEF20001086002989DF80F1040EA76
:100CF0000160029002989DF80E1040EA8140029037
:100D00009DF80D00029941EA404002909DF80C00C8
:100D1000029941EA0040029002989DF8071040EACB
:100D200041000290029840F00100029002984EF6B5
:100D3000A051CEF200010860FFF02AFC00208DF8DF
:100D40001F00FFE708B080BD84B040F21041C2F23E
:100D5000014103910290029808B9FFE736E002983A
:100D60000399CA68801A4988B0FBF1F00190039892
:100D70008068019900EB81004088009001980099FB
:100D8000084403998988884219D0FFE7039880684E
:100D90000199009A114410F8210001280ED1FFE7B3
:100DA000039880680199009A0A4400EB82025288F5
:100DB00000EB8100418811444180FFE7FFE7039881
:100DC00080680199012200F82120FFE704B07047F4
:100DD00083B00290002001900090FFE701980299F3
:100DE000898888421ADAFFE702988068019910F82A
:100DF000210050B9FFE702988068019900EB81005B
:100E00004088009908440090FFE7029880680199A3
:100E100000EB8100408808440190DFE79DED000A67
:100E2000B8EEC00A0298808801EE100AB8EEC11A26
:100E300080EE010A03B0704710B582B04CF200009A
:100E4000C3F60000009040F20044C2F2014448F2B0
:100E50000003C3F60003204604214FF48052FFF044
:100E6000BFFB20464FF48061FFF006FC03464FF0C5
:100E70000050009040F21040C2F201404FF48071E7
:100E80004FF48072FFF0ACFB20464FF48061FFF01E
:100E9000F3FB03464FF01050009040F22040C2F2A6
:100EA00001404FF480714FF48072FFF099FB02B063
:100EB00010BD00000000000010B586B040F21040E8
:100EC000C2F20140059041F2AF41C0F6000141F28B
:100ED0000004C4F20104204600F096FA0598C268A6
:100EE00041F25B51C0F60001204600F08DFA41F25C
:100EF000D451C0F60001204600F086FA059800782B
:100F000058B9FFE741F22951C0F6000141F2000053
:100F1000C4F2010000F078FA10E00598007801288A
:100F20000BD1FFE741F21F51C0F6000141F2000072
:100F3000C4F2010000F068FAFFE7FFE70598428875
:100F400041F2C241C0F6000141F20004C4F20104C2
:100F5000204600F059FA0598828841F2D541C0F642
:100F60000001204600F050FA0598826841F2405195
:100F7000C0F60001204600F047FA0598FFF728FF69
:100F80009FED311A20EE010AB7EEC00A53EC102B88
:100F900041F27E41C0F60001204600F035FA41F2F0
:100FA0009C41C0F60001204600F02EFA002004907B
:100FB0000390FFE7049805998988884229DAFFE7BA
:100FC00005988068049910F82100C8B9FFE70398D4
:100FD00001300390039A049B0598816801EB83011B
:100FE0004988408848430190009141F2EA41C0F6A7
:100FF000000141F20000C4F2010000F005FAFFE731
:1010000005988068049900EB8100408808440490AA
:10101000D0E7039858B9FFE741F20D51C0F600013F
:1010200041F20000C4F2010000F0EEF9FFE741F2E6
:101030007151C0F6000141F20000C4F2010000F05D
:10104000E3F906B010BD00BF0000C8420000000078
:1010500083B04EF68450CEF2000000210160BFF351
:101060004F8F4EF61450CEF20000016821F480310B
:101070000160BFF34F8F4EF68050CEF20000006843
:1010800002900298C0F34E300190FFE70298C0F33F
:10109000C9000090FFE701980099890760F34D119E
:1010A0004EF67470CEF200000160FFE70098411E1A
:1010B00000910028EFD1FFE7FFE70198411E019161
:1010C0000028E3D1FFE7BFF34F8FBFF36F8F03B06B
:1010D0007047000000000000BFF34F8FBFF36F8F19
:1010E0004EF65070CEF2000000210160BFF34F8F2A
:1010F000BFF36F8F4EF61450CEF20000016841F43A
:1011000000310160BFF34F8FBFF36F8F7047000056
:1011100080B541F23251C0F6000141F20000C4F244
:10112000010000F071F94EF60450CEF200000168A3
:1011300041F08051016080BD85B00490039102921E
:1011400001930020ADF802008DF8010044F60C0078
:10115000C5F60200016821F00401016044F61800A0
:10116000C5F60200016841F440410160FFE744F622
:101170001800C5F6020000688004002801D4FFE7CB
:10118000F5E744F20040C5F60200016841F4803101
:101190000160FFE744F20040C5F60200016800204C
:1011A0008903002909D4FFE7BDF8021047F6FF7252
:1011B00000209142B8BF0120FFE7C00730B1FFE730
:1011C000BDF802000130ADF80200E3E7BDF802000F
:1011D00047F6FF71884204D1FFE701208DF8010036
:1011E000F9E044F22840C5F60200016841F002012E
:1011F00001600399026842EA011101600498013814
:1012000044F23041C5F602010A68104308600298B2
:101210004FF60062CFF6FF7202EB40200A681043DF
:10122000086001980022CFF6FF7202EB00400A68C6
:1012300010430860086840F08070086044F22C4059
:10124000C5F60200016841F0080101600168016013
:10125000016841F44031016044F20040C5F60200EB
:10126000016841F080710160FFE744F20040C5F67B
:10127000020000688001002801D4FFE7F5E744F28E
:101280002840C5F60200016841F4C831016044F20B
:101290003840C5F60200016840F2B7121143016000
:1012A000016841F400710160016841F080710160E2
:1012B00044F22C40C5F6020001680160016801603B
:1012C000016841F400210160016841F400110160EE
:1012D00044F24C40C5F60200016821F003010160B0
:1012E000016841F00201016044F20040C5F60200CD
:1012F000016841F080610160FFE744F20040C5F6FB
:10130000020000680001002801D4FFE7F5E744F27D
:101310001840C5F60200016841F00801016001684B
:10132000016044F21040C5F60200016841F003017B
:101330000160FFE744F21040C5F602000068C0F308
:10134000C200ADF80200BDF80200032801D1FFE79A
:1013500000E0EFE742F20000C5F20020016841F032
:1013600002010160016841F02001016044F218406F
:10137000C5F60200016841F04001016044F21C40E2
:10138000C5F60200016841F040010160016841F4C6
:101390008061016044F22040C5F60200016841F01E
:1013A0004001016044F20040C5F60200016841F0CE
:1013B0008001016044F2F440C5F60200016841F08A
:1013C0000201016040F22040C5F60000016841F0D2
:1013D00001010160FFE705B0704700000000000058
:1013E00044F21C40C4F2000000684009C00700B18C
:1013F000FFE744F21840C4F20000018841F0080100
:10140000018070470000000082B080B586B009936B
:1014100008920590049108A801900499019A40F25D
:101420000000C2F2014000F009F802900598FFF0B8
:101430009BFB06B0BDE8804002B0704737B514464C
:101440000846064B6A462146FFF022FD04466946DF
:10145000002000F1B4F820463EBD0000BF15100882
:1014600002E008C8121F08C1002AFAD1704770476D
:10147000002001E001C1121F002AFBD170472D2D71
:101480005574696C697A6174696F6E205261746910
:101490006F3A20252E336625250D0A0048656170B8
:1014A000204E6F64657320496E666F3A0D0A0048DE
:1014B0006561702050726F706572746965733A0D62
:1014C0000A002D2D426C6F636B2053697A653A20B8
:1014D00025640D0A002D2D426C6F636B204E756DD7
:1014E0006265723A2025640D0A002D2D4672616DE9
:1014F0006525643A206964783D2564206C656E3DFD
:1015000025642073697A653D25640D0A002D2D4EF2
:101510006F20426C6F636B20557365640D0A005237
:101520006576657273650D0A004E6F726D616C0DA4
:101530000A005379737469636B20696E740D0A0035
:101540002D2D4E6F6465204C697374204164647264
:101550006573733A202523780D0A002D2D416464AC
:10156000726573733A202523780D0A005265616411
:10157000790D0A000A446174616669656C642073C0
:10158000697A653A2025640A004E6F6465207369A4
:101590007A653A2025640A004E6F646573204E75A3
:1015A0006D3A2025640A004E6F64652564207B4CEB
:1015B000617374416464723A2523782C41646472C7
:1015C0003A2523782C4E657874416464723A252359
:1015D000787D0A002D2D496E637265617365204424
:1015E0006972656374696F6E3A200000FC1500082B
:0C15F000000001247824000070140008A2
:020000040810E2
:10000000DFF83400016841F470010160BFF34F8FE5
:10001000DFF82800016821F040410160BFF36F8FD5
:1000200007480047FEE7FEE7FEE7FEE7FEE7FEE7DC
:10003000FEE7FEE7FEE7FEE788ED00E034EF00E0D4
:100040009902000830B50B46014600202022012409
:1000500009E021FA02F59D4205D303FA02F5491B96
:1000600004FA02F52844151EA2F10102F1DC30BDAC
:100070002DE9FE4F804681EA0300C00F0C46009038
:1000800021F0004123F00045B8EB0200A94105D260
:100090004046214690461C460B46024623F000404F
:1000A000104347D0270DC7F30A00C3F30A5102904B
:1000B000401A019040286BDAC3F3130040F4801B10
:1000C0000098924620B10023D2EB030A63EB0B0B9E
:1000D00001985946C0F14002504600F723FA0646FF
:1000E0000D4650465946019A00F72BFA10EB0800CE
:1000F0006141002487EA115284EAE7731A4340D031
:10010000009A62B3019A012A4FEA075215DC001BDC
:1001100061EB02014FF0004202EA0752CDE90042D2
:10012000001C41F5801132462B4600F07FF803B0E9
:10013000BDE8F08F40462146F9E7001B61EB020164
:10014000001C41F5801300185B412018A2F5001730
:1001500047EB030140EAD570B6196D4111E06D0817
:100160004FEA360645EAC0754FEA0752001B61EBBD
:100170000201001C41F5801149084FEA30000019C6
:10018000514132462B4603B0BDE8F04F00F03FB876
:100190000098012240000023D0EB020263EBE073E1
:1001A000009821464FEAE074B8EB000061EB0401CF
:1001B000E9E783F000435BE781F0004158E7C1F3D2
:1001C0000A52C1F3130140F2FF3341F480119A4205
:1001D00002DA00200146704740F233439A42A2F20D
:1001E000334202DC524200F002B800F79BB9202AE9
:1001F00004DB203A21FA02F00021704721FA02F3D1
:10020000D040C2F12002914008431946704710B512
:10021000141E73F1000408DA401C41F10001921829
:100220005B411A4301D120F0010010BD2DE9F04DD2
:1002300092469B4611B1B1FA81F202E0B0FA80F227
:100240002032904600F76EF904460F4640EA0A0055
:1002500041EA0B0153465A46084313D0114653EA6C
:10026000010019D0C8F140025046FFF7C0FF054613
:100270000E4650465946424600F754F9084305D009
:10028000012004E020463946BDE8F08D00200543FA
:1002900046EAE0762C4337430A986305E40AA0EB6C
:1002A00008000022FD0A44EA47540A3002D5002023
:1002B0000146E9E7010510196941DDE90845001922
:1002C0006941BDE8F04DA2E781B08DF80300072039
:1002D0008DF802009DF80300902825D0FFE79DF8D7
:1002E000030000F0F001890100F0080041EA50002D
:1002F00040F2200CC5F6020C50F80C009DF80320CB
:1003000002F007039B000F21994088439DF80210DB
:100310009940084302F0F001042303EA520242EA42
:10032000811141F80C00FFE701B0704700000000A8
:1003300080B588B040F26C42C2F20142079206904A
:10034000059107988079C8BBFFE70698002806D476
:10035000FFE7069807998988884201DDFFE76FE08B
:100360000798069900F78CFB0490079806990139C5
:1003700000F786FB03900398059941F8040C049854
:100380000599079A5288114441F8080C039840B126
:10039000FFE705980399079A5288114441F8080C21
:1003A00003E0059807998860FFE7049828B1FFE704
:1003B0000598049941F8040CFFE73CE0079806997A
:1003C00000F75EFB029007980699013900F758FB89
:1003D0000190019818B1FFE7029868B9FFE7059806
:1003E00040F8040C059807994988014441F8080C25
:1003F0000598079988601DE005980199079A528829
:10040000114441F8080C0198059941F8040C029830
:100410000599079A5288114441F8080C05980299E9
:1004200041F8040C069820B9FFE705980799886001
:10043000FFE7FFE7FFE70798818801318180FFE749
:1004400008B080BD0000000080B58AB040F26C406A
:10045000C2F2014008900120079008988079002896
:1004600047D1FFE70798002806D4FFE707980899C7
:100470008988884203DBFFE70020099083E0089821
:10048000079900F7FDFA0690069820B1FFE7069855
:1004900050F8040C01E00020FFE70590069838B101
:1004A000FFE7069808994988084450F8080C01E0CD
:1004B0000020FFE70490059840B1FFE704980599F4
:1004C000089A5288114441F8080C03E004980899EE
:1004D0008860FFE7049828B1FFE70598049941F880
:1004E000040CFFE7089881880139818006980990FB
:1004F00049E00898808818B9FFE70020099042E099
:100500000898079900F7BCFA0390039820B1FFE719
:10051000039850F8040C01E00020FFE702900398D4
:1005200038B1FFE7039808994988084450F8080C47
:1005300001E00020FFE7019001980299089A528893
:10054000114441F8080C0298019941F8040C0798ED
:1005500020B9FFE7019808998860FFE7029803999E
:10056000884205D0FFE701980399884204D1FFE74C
:10057000089800218160FFE708988188013981800F
:1005800003980990FFE709980AB080BD00000000B9
:100590004EF69450CEF20000052101604EF6245034
:1005A000CEF20000016841F4803101607047000024
:1005B00082B04FF0006001900020009001980099F7
:1005C00040F2FF12914308434EF60851CEF200016B
:1005D000086002B070470000704700000000000093
:1005E00085B0DDF814C0049000208DF80F00ADF840
:1005F0000C10ADF80A2001930199049A91609DF8BE
:100600000F10049A1170BDF80C10049A5180BDF8B7
:100610000A10049A91800599049AD1600090FFE72E
:100620000098BDF80A1088420ADAFFE7019800999D
:10063000012200F82120FFE7009801300090EFE749
:100640009DF80F0028B9FFE7BDF80A00019948801E
:100650000EE09DF80F00012808D1FFE7BDF80A0061
:10066000019901EB800121F8020C00E000E0FFE7B6
:1006700005B070470000000085B003900291029819
:1006800018B9FFE70020049081E002980399498897
:10069000B0FBF1F00090029803994988B0FBF1F2A9
:1006A00002FB110020B1FFE7009801300090FFE746
:1006B00000200190FFE7019803998988884263DA56
:1006C000FFE703988068019910F82100012852D1B2
:1006D000FFE703988068019900EB8100408800994A
:1006E000884247DBFFE7039880680199002200F801
:1006F0002120009803998968019A01EB82014988B9
:10070000884215D0FFE7039880680199009A114448
:10071000012200F8212003988068019900EB8102F2
:100720005288009BD21A194400EB81004280FFE7F7
:10073000009803998968019A01EB82014880039827
:10074000007840B9FFE70398C168019A408802FB2E
:10075000001004901BE00398C1688088019A801AF9
:10076000009AD24310440138039A528800FB0210C9
:1007700004900CE0FFE703988068019900EB81008A
:1007800040880844019096E700200490FFE7049811
:1007900005B070470000000083B04EF68450CEF2E2
:1007A000000000210160BFF34F8F4EF68050CEF263
:1007B0000000006802900298C0F34E300190FFE7FD
:1007C0000298C0F3C9000090FFE7019800998907DB
:1007D00060F34D114EF66070CEF200000160FFE74D
:1007E0000098411E00910028EFD1FFE7FFE7019834
:1007F000411E01910028E3D1FFE7BFF34F8F4EF672
:100800001450CEF20000016841F480310160BFF362
:100810004F8FBFF36F8F03B07047000000000000E0
:10082000BFF34F8FBFF36F8F4EF65070CEF20000C4
:1008300000210160BFF34F8FBFF36F8F4EF614504E
:10084000CEF20000016841F400310160BFF34F8F28
:10085000BFF36F8F7047000080B584B0A020039075
:1008600005200290022001900420009044F20040F4
:10087000C5F602000121016044F21040C5F60200F5
:100880000022026044F21840C5F60200026044F201
:100890001C40C5F60200026044F22040C5F602008A
:1008A000026044F22840C5F60200026044F22C4087
:1008B000C5F60200026044F26040C5F60200026024
:1008C00048F20810C5F200100160FFF64DFE0398D3
:1008D0000299019A009B00F72FFCFFF769FE04B014
:1008E00080BD00000000000086B004900498000A5B
:1008F0008DF80F0000200290FFE7029898B1FFE703
:100900009DF80F0002990978884201D1FFE70BE0BA
:10091000029820B1FFE7029850F8080C01E000208F
:10092000FFE70290E9E7FFE7029880690190002065
:100930000090FFE700980299898A884218DAFFE759
:1009400001980099C1EBC10100EB81008068049916
:10095000884208D1FFE701980099C1EBC10100EB83
:100960008100059007E0FFE7009801300090E1E783
:1009700000200590FFE7059806B0704700000000D2
:1009800041F21C00C4F2010000684009C00700B138
:10099000FFE741F21800C4F20100018841F00801AC
:1009A000018070470000000044F61C00C4F2000003
:1009B00000684009C00700B1FFE744F61800C4F220
:1009C0000000018841F0080101807047000000002C
:1009D00080B584B041F20000C4F2010003904FF4EE
:1009E000E13102910399814209D1FFE702984EF269
:1009F0000011C0F2F551B1FBF0F0019023E0039833
:100A000044F20041C4F20001884209D1FFE7029894
:100A10004EF20011C0F2F551B1FBF0F0019011E07F
:100A2000039844F60001C4F20001884209D1FFE7AF
:100A300002984EF20011C0F2F551B1FBF0F00190B6
:100A4000FFE7FFE7FFE7039841F20001C4F201016D
:100A500088421FD1FFE744F2D840C5F60200016882
:100A600041F00101016044F2F040C5F60200016866
:100A700041F01001016009200121FFF685FD0A20E7
:100A80000021FFF681FD0920FFF71EFC0A20FFF779
:100A90001BFC4FE0039844F20041C4F2000188427D
:100AA0001FD1FFE744F2D840C5F60200016841F0CB
:100AB0000101016044F2E840C5F60200016841F41A
:100AC0000031016002200121FFF65EFD03200021BC
:100AD000FFF65AFD0220FFF7F7FB0320FFF7F4FBB8
:100AE00027E0039844F60001C4F2000188421FD1B8
:100AF000FFE744F2D840C5F60200016841F0020168
:100B0000016044F2E840C5F60200016841F480212A
:100B100001601A200121FFF637FD1B200021FFF69E
:100B200033FD1A20FFF7D0FB1B20FFF7CDFBFFE7BB
:100B3000FFE7FFE701980399C8600398016821F473
:100B4000004101600398016841F0040101600398CD
:100B5000016841F0080101600398016841F001015A
:100B6000016004B080BD000083B0029040F200003C
:100B7000C2F20140019000200090FFE70198009927
:100B8000405C90B1FFE701980099405C02990885AC
:100B9000FFE70298C0698009C00708B9FFE7F8E7D6
:100BA000FFE7009801300090E8E703B070470000CD
:100BB00082B000250195FFF74FFE44F2E040C5F6F4
:100BC0000200016840F2FF3211430160FFF728FE86
:100BD00000F73EFAFFF7FCFE41F26C51C0F600014F
:100BE00041F20004C4F20104204600F70DFCFFF6B8
:100BF000FFFF00F721F900F75FF940F26C40C2F205
:100C000001400521018010214180858085600121FE
:100C10008171FFF681FE024641F26655C0F600057D
:100C20002046294600F7F0FBFFF676FE02462046F6
:100C3000294600F7E9FBFFF66FFE024620462946EB
:100C400000F7E2FBFFF668FE02462046294600F761
:100C5000DBFBFFF665FDFFF7F7FB00900099022034
:100C6000FFF766FBFFF65CFDFFF7EEFB00900099D7
:100C70000020FFF75DFBFFF653FDFFF65DFEFFF67C
:100C80004FFD00F719F9FFE7FEE700004FF47F4042
:100C9000FFF72AFE016881F3098841688F4672B622
:100CA0002DE9F00F1EF0100F01D12DED108A00B5C7
:100CB000EFF30880124A11680860124888420FD189
:100CC00011481060006880F308885DF804EB1EF09E
:100CD000100F01D1BDEC108ABDE8F00F62B670476D
:100CE0001060006880F308885DF804EB1EF0100FB8
:100CF000F2D1BDEC108ABDE8F00F62B6704700007B
:100D00003004012434040124500401242DE9FF5F40
:100D100082B00021DDE90430020DDDF840B003436C
:100D200018D044F61050A2F2FF3242431514119825
:100D300001281FD0A5EB0B00401C5FEA000A4FF012
:100D400000064E4FDFF83891B046504615D5CAF12F
:100D5000000413E0119801244AA3012801D16FEA8D
:100D60000B010298119AC0E90031C0E9024206B0B5
:100D7000BDE8F09FCBF10000DFE704460021404AC8
:100D8000491842EB0450CDE9001012E0E00707D00B
:100D900032463B4640464946FFF6B9FA8046894608
:100DA00032463B4610461946FFF6B1FA06460F4654
:100DB0006410002CEAD1DDE90401DDE90023BAF179
:100DC000000F06DAFFF6A3FA42464B46FFF69FFAFB
:100DD00005E0FFF60EFB42464B46FFF60AFB0446D3
:100DE0000E460022284BFFF673FB03D84FF0FF306E
:100DF000014607E00022254B20463146FFF738F92F
:100E0000FFF7DDF9102409E0002C0ADB0A22002399
:100E1000FFF64CFA039B30321A55641E50EA010269
:100E2000F2D1641C039AC4F111031444119A012AEB
:100E300003D0012208430DD10AE0084304D000206A
:100E40004FF0110B119072E7A3EB0B056D1E0DE037
:100E50005B4504DD4FF0000205F1010504E003DA13
:100E60004FF00002A5F10105002AECD0029811997B
:100E7000C0E90231C0E9004579E7000000001440F4
:100E80000000F03F300000000000F0430000E03FB1
:100E90002DE9FF4F95B09B468946064600250FE297
:100EA000252877D100242746F84A0121059400E03F
:100EB000044316F8013F203B01FA03F01042F7D13A
:100EC00030782A2811D06FF02F033078A0F130024B
:100ED000092A16D8059A44F0020402EB820203EBB9
:100EE00042021044761C0590EFE759F8042B059256
:100EF000002A03DA504244F40054059044F00204FE
:100F0000761C30782E2816D116F8010F44F0040410
:100F10002A280DD06FF02F023078A0F13003092B72
:100F200009D807EB870302EB4303C718761CF3E7E6
:100F300059F8047B761C30786C280FD006DC4C28DE
:100F400017D068280DD06A2814D104E0742810D076
:100F50007A280FD10DE044F400140AE044F4801420
:100F600001E044F440147278824202D104F5801406
:100F7000761C761C307866280BD013DC582877D086
:100F800009DC002875D04528F6D04628F4D047283B
:100F90001AD19DE118E0632835D0642879D06528FE
:100FA00012D195E1702873D008DC6728F1D0692848
:100FB0006FD06E280DD06F2806D1B5E073282CD0E5
:100FC000752875D0782874D05A46179990476D1CAB
:100FD00075E1C4F30250022809D003280DD0D9F8D6
:100FE000001004280DD00D6009F1040967E1D9F85B
:100FF0000010EA17C1E90052F6E7D9F800100D8099
:10100000F2E70D70F0E719F8041B8DF800100020CE
:101010008DF80100EA46012003E059F804AB4FF0D7
:10102000FF3061074FF0000102D40DE008F101012B
:101030008846B9420FDA8045F8DB1AF80810002913
:10104000F4D108E008F1010188468142FADB1AF880
:1010500008100029F6D105985B46A0EB0807214649
:101060003846179A00F094FA284400EB080507E088
:101070004DE029E10DE01AF8010B5A461799904707
:10108000B8F10108F7D25B4621463846179A13E1BA
:1010900042E00A220092C4F302524FF0000A022AF0
:1010A00008D059F804CB032A4FEAEC710AD00DE0BE
:1010B00029E02AE009F1070121F00702F2E802C164
:1010C000914609E00FFA8CFC4FEAEC71042A03D137
:1010D0004FFA8CFC4FEAEC71002907DA0A4600212E
:1010E000DCF1000C61EB02012D2202E0220504D5A7
:1010F0002B228DF80420012203E0E20701D02022F8
:10110000F7E7904659E00A2102E010220DE0102195
:101110004FF0000A00910BE010224FF0000A44F05B
:1011200004040827009203E008224FF0000A00920E
:10113000C4F30252022A05D059F804CB0021032A35
:1011400008D009E009F1070121F00702F2E802C125
:10115000914605E01FFA8CFC042A01D10CF0FF0C2B
:101160004FF00008220728D5702806D0009B83F096
:10117000100353EA0A0305D00EE040228DF8042044
:10118000012208E05CEA010206D030228DF804203A
:101190008DF8050002229046009B83F0080353EA75
:1011A0000A030AD15CEA010201D1620705D53022A7
:1011B0008DF804204FF001087F1E582804D034A079
:1011C00003900EA802900DE036A0F9E75346604662
:1011D000009AFFF66BF884460398825C0298401EE2
:1011E000029002705CEA0100F0D1029806A9081A88
:1011F00000F1200A600702D524F4803400E00127C2
:10120000574502DDA7EB0A0000E0002000EB0A01D1
:10121000009005984144401A0590E00306D45B46CF
:101220002146179A059800F0B3F90544002706E017
:1012300001A85A46C05D179990476D1C7F1C474511
:10124000F6DBE0030CD55B462146179A059800F0C3
:101250009FF9054404E030205A46179990476D1CC9
:101260000099481E00900029F5DC08E002980299D8
:101270005A460078491C0291179990476D1CBAF1A3
:101280000001AAF1010AF1DC65E100000928010072
:1012900030313233343536373839616263646566EC
:1012A00000000000303132333435363738394142AE
:1012B000434445460000000000F058F90544761C00
:1012C000307800287FF4ECAD19B02846BDE8F08FE7
:1012D000620700D4062709F1070222F0070CFCE898
:1012E0000223E14603F000485FEA080C02D00FF247
:1012F000702C0DE05FEA045C02D50FF2682C07E069
:101300005FEAC47C02D00FF2602C01E0AFF2700CF7
:101310004FF0FF3823F00043CDF850C065280CD0C3
:1013200006DC452809D046281DD047283DD13DE0A0
:10133000662818D067287ED138E00021112F01DB04
:10134000112000E0781CCDE9000106A90EA8FFF7E6
:10135000DDFCDDE90F010E9A03910021009207F1F7
:10136000010A04914DE04FF000400097CDE90110D3
:1013700006A90EA8FFF7CAFCDDE90F0203920E9B37
:1013800011990022DDF80CA00093049211B9791C88
:1013900000EB010AB7EB0A0004D4C0F1FF3007F1FB
:1013A000010A0490AAEB0700019044E0012F00DA43
:1013B00001270021112F01DD112000E03846CDE981
:1013C000000106A90EA8FFF7A1FCDDE90F010E9AA6
:1013D0000391002104910092BA4621070CD403998D
:1013E000514500DA8A46BAF1010F05DD009AAAF1EB
:1013F0000101515C302908D0B84202DA10F1040F23
:1014000006DA0121CDE9011015E0AAF10101E9E7B1
:10141000002805DC049901440491AAEB000102E0D4
:10142000411C514500DD8A460499401A401C019038
:101430004FF000400290200704D40198504501DB92
:10144000CDF8048000208DF84F0002980DF14F0771
:10145000B0F1004F25D02B200E9002984FF00208DB
:1014600000280CDA404202902D200E9007E00A215D
:101470000298FEF7E7FD3031029007F8011DB8F140
:101480000001A8F10108F2DC02980028EFD1791ED2
:101490000E980870307800F0200040F0450007F802
:1014A000020D12A8C01B00F107081498007800B1C3
:1014B000012000EB0A01019801EBE071059841441D
:1014C000401A401E0590E00306D45B462146179A59
:1014D000059800F05DF805441498007818B15A4654
:1014E000179990476D1CE00324D55B462146179A57
:1014F000059800F04DF805441CE00498002807DB2F
:10150000DDE90301884203DD0098405C179901E0A2
:10151000179930205A469047049805F10105401C60
:1015200004900198401E019004D12E205A4617992C
:1015300090476D1CBAF10001AAF1010ADDDC05E05B
:1015400017F8010B5A46179990476D1CB8F1000126
:10155000A8F10108F4DC5B462146179A0598ABE632
:101560002D0000002B000000200000002DE9F041BC
:10157000044600251E461746880404D405E0394673
:101580002020B0476D1C641EF9D52846BDE8F081C7
:101590002DE9F041044600251E469046C80301D5BA
:1015A000302700E02027880404D505E0414638466E
:1015B000B0476D1C641EF9D52846BDE8F0810A6865
:0815C000531C0B601070704712
:040000050800029954
:00000001FF
