:020000040800F2
:1000000048140120010010082500100827001008DE
:10001000B10700082B0010082D0010080000000098
:100020000000000000000000000000002F00100889
:1000300031001008000000001105100841061008EA
:100040003700100837001008370010083700100874
:100050003700100837001008370010083700100864
:100060003700100837001008370010083700100854
:100070003700100837001008370010083700100844
:100080003700100837001008370010083700100834
:100090003700100837001008370010083700100824
:1000A0003700100837001008370010083700100814
:1000B0003700100837001008370010083700100804
:1000C00037001008370010083700100837001008F4
:1000D00037001008C10B0008B1061008E90B000832
:1000E0003700100837001008000000003700100823
:1000F00037001008370010083700100837001008C4
:1001000037001008370010083700100837001008B3
:1001100037001008370010083700100837001008A3
:100120003700100837001008370010083700100893
:100130003700100837001008370010083700100883
:1001400000000000000000000000000000000000AF
:100150003700100837001008370010083700100863
:100160003700100837001008370010083700100853
:100170003700100837001008370010080000000092
:100180003700100837001008370010083700100833
:100190003700100837001008370010083700100823
:1001A0003700100837001008370010083700100813
:1001B0003700100837001008370010083700100803
:1001C00037001008370010083700100837001008F3
:1001D00037001008370010083700100837001008E3
:1001E00037001008370010083700100837001008D3
:1001F00037001008370010083700100837001008C3
:1002000037001008370010083700100837001008B2
:1002100037001008370010083700100837001008A2
:1002200037001008370010083700100800000000E1
:1002300037001008370010080000000037001008D1
:100240003700100837001008370010083700100872
:100250003700100837001008370010083700100862
:100260003700100837001008370010083700100852
:100270003700100837001008370010080000000091
:1002800037001008000000003700100800000000D0
:100290000000000037001008DFF80CD000F0C0F8B4
:1002A00000480047910D00084814012030B50B4666
:1002B000014600202022012409E021FA02F59D4296
:1002C00005D303FA02F5491B04FA02F52844151E6A
:1002D000A2F10102F1DC30BD2DE9F05F05460020FE
:1002E00092469B4688460646814640241BE02846A7
:1002F00041464746224600F0B4F853465A46C01AD3
:10030000914110D311461846224600F09BF82D1A51
:1003100067EB01084F4622460120002100F092F8C9
:1003200017EB00094E41201EA4F10104DFDC484612
:1003300031462A464346BDE8F09F2DE9FE4F81EA4B
:10034000030404F0004421F0004100944FF0000B3E
:1003500023F0004350EA01045ED052EA03045BD06C
:10036000C3F30A54C1F30A552C44A4F2F3340194A4
:10037000A0FB0254C1F3130141F48011C3F3130332
:1003800043F4801301FB024400FB034E840A970AE6
:1003900044EA815447EA8357A4FB076802958D0A13
:1003A00005FB07854FEA932C04FB0C542705029D9F
:1003B0004FEA065847EA1637B5EB08056EEB070C0F
:1003C000870E920E47EA811742EA8312A7FB0201C9
:1003D000B6EB0B0164EB00042B0D43EA0C335E1803
:1003E00044EB1C50DA465146E7FB0201C5F3130407
:1003F0004FEA0B3343EA14534FEA0432019C43EAB9
:100400000603A4F10C040294009CCDE900B400F0B2
:1004100047F803B0BDE8F08F00200146F9E700007F
:10042000064C074D06E0E06840F0010394E8070041
:1004300098471034AC42F6D3FFF732FFF00F0008B4
:1004400000100008202A04DB203A00FA02F1002004
:1004500070479140C2F1200320FA03F31943904002
:100460007047202A04DB203A21FA02F0002170476D
:1004700021FA02F3D040C2F120029140084319460C
:10048000704710B5141E73F1000408DA401C41F1E6
:10049000000192185B411A4301D120F0010010BD08
:1004A0002DE9F04D92469B4611B1B1FA81F202E07E
:1004B000B0FA80F220329046FFF7C4FF04460F46A0
:1004C00040EA0A0041EA0B0153465A46084313D05A
:1004D000114653EA010019D0C8F140025046FFF717
:1004E000C0FF05460E46504659464246FFF7AAFF52
:1004F000084305D0012004E020463946BDE8F08DD0
:100500000020054346EAE0762C4337430A9863050A
:10051000E40AA0EB08000022FD0A44EA47540A302E
:1005200002D500200146E9E7010510196941DDE91E
:10053000084500196941BDE8F04DA2E70000000040
:1005400080B500F0B1F900F06BF94EF69C70CEF278
:100550000000016841F00401016080BD000000005E
:1005600080B582B08DF8070002208DF806000020CB
:100570008DF805008DF8041001208DF803009DF81A
:100580000700902800F0B580FFE79DF80600D8BB73
:10059000FFE79DF8070000F0F000800140F2000E38
:1005A000C5F6020E5EF800009DF8072002F00F036A
:1005B0005B004FF0030C0CFA03F188439DF8061022
:1005C0009940084302F0F00189014EF801009DF8BE
:1005D000070000F0F000800140F20C0EC5F6020E9C
:1005E0005EF800009DF8072002F00F035B000CFA94
:1005F00003F188439DF803109940084302F0F0018D
:1006000089014EF8010073E09DF8070000F0F0004A
:10061000800140F2000EC5F6020E5EF800209DF843
:10062000073003F00F0040004FF0030C0CFA00F10C
:1006300022EA01019DF8062002FA00F0084303F0C7
:10064000F00189014EF801009DF8070000F0F0006C
:10065000800140F2040EC5F6020E5EF800009DF81F
:10066000072002F00F030121994088439DF80510EF
:100670009940084302F0F00189014EF801009DF80D
:10068000070000F0F000800140F2080EC5F6020EEF
:100690005EF800009DF8072002F00F035B000CFAE3
:1006A00003F188439DF804109940084302F0F001DB
:1006B00089014EF801009DF8070000F0F00080016C
:1006C00040F20C0EC5F6020E5EF800009DF8072001
:1006D00002F00F035B000CFA03F188439DF803104E
:1006E0009940084302F0F00189014EF80100FFE74C
:1006F000FFE702B080BD00004EF62450CEF20000AD
:10070000016821F4803101604EF69450CEF2000071
:10071000016821F001010160704700000000000045
:10072000B0B582B0012400944FF000504FF4003176
:1007300001220123FFF04CFE00944FF010504FF4C3
:10074000002102220123FFF043FE00944FF04050AD
:100750004FF4002103220123FFF03AFE00944FF0F2
:1007600060504FF4803104220123FFF031FE002558
:1007700000954FF0C0404FF0806105220023FFF04C
:1007800027FE00944FF040404FF0007106220123F5
:10079000FFF01EFE00954FF000404FF08051072201
:1007A0000023FFF015FE02B0B0BD00000000000005
:1007B0007047000000000000B0B548F20004C3F626
:1007C000000420464FF40041FFF09BFD40F200453D
:1007D000C2F20105EC634FF40070A5F84000402020
:1007E000A5F842006C64B5F84000800000F010FAF3
:1007F0004FF0005028604FF48074AC80EC80A888E3
:10080000800000F005FAA8604FF01050E8602C82DC
:100810006C82288A800000F0FBF96861B0BD00009E
:1008200083B04EF68450CEF2000000210160BFF389
:100830004F8F4EF68050CEF2000000680290029872
:10084000C0F34E300190FFE70298C0F3C90000905A
:10085000FFE701980099890760F34D114EF660702B
:10086000CEF200000160FFE70098411E00910028D1
:10087000EFD1FFE7FFE70198411E01910028E3D186
:10088000FFE7BFF34F8F4EF61450CEF20000016821
:1008900041F480310160BFF34F8FBFF36F8F03B01E
:1008A0007047000000000000BFF34F8FBFF36F8F51
:1008B0004EF65070CEF2000000210160BFF34F8F62
:1008C000BFF36F8F4EF61450CEF20000016841F472
:1008D00000310160BFF34F8FBFF36F8F704700008F
:1008E000BFF34F8FBFF36F8F4EF65070CEF2000004
:1008F00000210160BFF34F8FBFF36F8F4EF614508E
:10090000CEF20000016841F400310160BFF34F8F67
:10091000BFF36F8F7047000085B00490039102927F
:1009200001930020ADF802008DF8010044F60C00A0
:10093000C5F60200016821F00401016044F61800C8
:10094000C5F60200016841F440410160FFE744F64A
:100950001800C5F6020000688004002801D4FFE7F3
:10096000F5E744F20040C5F60200016841F4803129
:100970000160FFE744F20040C5F602000168002074
:100980008903002909D4FFE7BDF8021047F6FF727A
:1009900000209142B8BF0120FFE7C00730B1FFE758
:1009A000BDF802000130ADF80200E3E7BDF8020037
:1009B00047F6FF71884204D1FFE701208DF801005E
:1009C000F9E044F22840C5F60200016841F0020156
:1009D00001600399026842EA01110160049801383C
:1009E00044F23041C5F602010A68104308600298DB
:1009F0004FF60062CFF6FF7202EB40200A68104308
:100A0000086001980022CFF6FF7202EB00400A68EE
:100A100010430860086840F08070086044F22C4081
:100A2000C5F60200016841F008010160016801603B
:100A3000016841F44031016044F20040C5F6020013
:100A4000016841F080710160FFE744F20040C5F6A3
:100A5000020000688001002801D4FFE7F5E744F2B6
:100A60002840C5F60200016841F4C831016044F233
:100A70003840C5F60200016840F2B7121143016028
:100A8000016841F400710160016841F0807101600A
:100A900044F22C40C5F60200016801600168016063
:100AA000016841F400210160016841F40011016016
:100AB00044F24C40C5F60200016821F003010160D8
:100AC000016841F00201016044F20040C5F60200F5
:100AD000016841F080610160FFE744F20040C5F623
:100AE000020000680001002801D4FFE7F5E744F2A6
:100AF0001840C5F60200016841F008010160016874
:100B0000016044F21040C5F60200016841F00301A3
:100B10000160FFE744F21040C5F602000068C0F330
:100B2000C200ADF80200BDF80200032801D1FFE7C2
:100B300000E0EFE742F20000C5F20020016841F05A
:100B400002010160016841F02001016044F2184097
:100B5000C5F60200016841F04001016044F21C400A
:100B6000C5F60200016841F040010160016841F4EE
:100B70008061016044F22040C5F60200016841F046
:100B80004001016044F20040C5F60200016841F0F6
:100B90008001016044F2F440C5F60200016841F0B2
:100BA0000201016040F22040C5F60000016841F0FA
:100BB00001010160FFE705B0704700000000000080
:100BC00041F21C00C4F2010000684009C00700B1F6
:100BD000FFE741F21800C4F20100018841F008016A
:100BE000018070470000000044F61C00C4F20000C1
:100BF00000684009C00700B1FFE744F61800C4F2DE
:100C00000000018841F008010180704700000000E9
:100C100087B0059040F20040C2F201003C300490E1
:100C200005980499C988B0FBF1F202FB110038B9AC
:100C3000FFE705980499C988B0FBF1F0039007E03D
:100C400005980499C988B0FBF1F001300390FFE7E3
:100C500000200290FFE702980499898888426BDAA5
:100C6000FFE704988068029900EB81004088002823
:100C70005DD1FFE70298009000200190FFE7019806
:100C80000399884225DAFFE7049880880099401A82
:100C90000399884203DAFFE7002006904FE00498AA
:100CA0008068029900EB8100408850B1FFE704980A
:100CB0008068029900EB8100408808440138029066
:100CC00008E0FFE70198013001900298013002909E
:100CD000D5E7FFE701980399884227D1FFE7002075
:100CE000019000980290FFE701980399884215DA75
:100CF000FFE7039804998968029A01EB8201488012
:100D0000009804998968029A21F82200FFE7019867
:100D100001300190029801300290E5E704980168E3
:100D2000009AC08802FB0010069008E0FFE7FFE78A
:100D30000298013002908EE700200690FFE70698A7
:100D400007B070470000000083B0029040F200003E
:100D5000C2F20100019000200090FFE70198009985
:100D6000405C90B1FFE701980099405C02990885CA
:100D7000FFE70298C0698009C00708B9FFE7F8E7F4
:100D8000FFE7009801300090E8E703B070470000EB
:100D900082B000200190FFF00BFC44F2E040C5F669
:100DA0000200016840F2FF3211430160FFF798FD35
:100DB000FFF0BAFBFFF090FCFFF7B2FCFFF7FCFC82
:100DC000FFF04EFC40F6E771C0F60001FFF050FD69
:100DD000FFE7FEE702E008C8121F08C1002AFAD1A7
:100DE00070477047002001E001C1121F002AFBD1AB
:100DF000704700002DE9FF5F82B00021DDE904307B
:100E0000020DDDF840B0034318D044F61050A2F2B2
:100E1000FF3242431514119801281FD0A5EB0B0097
:100E2000401C5FEA000A4FF000064E4FDFF8389191
:100E3000B046504615D5CAF1000413E011980124BC
:100E40004AA3012801D16FEA0B010298119AC0E967
:100E50000031C0E9024206B0BDE8F09FCBF10000CE
:100E6000DFE704460021404A491842EB0450CDE92F
:100E7000001012E0E00707D032463B4640464946A4
:100E8000FFF75BFA8046894632463B4610461946D4
:100E9000FFF753FA06460F466410002CEAD1DDE94D
:100EA0000401DDE90023BAF1000F06DAFFF745FA85
:100EB00042464B46FFF741FA05E0FFF06AF9424629
:100EC0004B46FFF066F904460E460022284BFFF021
:100ED000E7F903D84FF0FF30014607E00022254B29
:100EE00020463146FFF0AEF8FFF0C2F9102409E0C9
:100EF000002C0ADB0A220023FFF7EEF9039B3032B5
:100F00001A55641E50EA0102F2D1641C039AC4F11E
:100F100011031444119A012A03D0012208430DD170
:100F20000AE0084304D000204FF0110B119072E743
:100F3000A3EB0B056D1E0DE05B4504DD4FF00002D9
:100F400005F1010504E003DA4FF00002A5F1010507
:100F5000002AECD002981199C0E90231C0E900459D
:100F600079E70000000014400000F03F300000006E
:100F70000000F0430000E03F2DE9F0410446002569
:100F80001E461746880404D405E039462020B047A1
:100F90006D1C641EF9D52846BDE8F0812DE9F041AD
:100FA000044600251E469046C80301D5302700E0C0
:100FB0002027880404D505E041463846B0476D1C1B
:100FC000641EF9D52846BDE8F081696E2070656E13
:100FD0006473762025640D0A005379737469636B1A
:100FE00020696E740D0A0052656164790D0A000073
:100FF000001000080000012048140000E40D000863
:020000040810E2
:10000000DFF83400016841F470010160BFF34F8FE5
:10001000DFF82800016821F040410160BFF36F8FD5
:1000200007480047FEE7FEE7FEE7FEE7FEE7FEE7DC
:10003000FEE7FEE7FEE7FEE788ED00E034EF00E0D4
:10004000990200082DE9FE4F804681EA0300C00FA7
:100050000C46009021F0004123F00045B8EB02006F
:10006000A94105D24046214690461C460B46024611
:1000700023F00040104347D0270DC7F30A00C3F315
:100080000A510290401A019040286BDAC3F3130022
:1000900040F4801B0098924620B10023D2EB030A63
:1000A00063EB0B0B01985946C0F14002504600F734
:1000B000C9F906460D4650465946019A00F008F91E
:1000C00010EB08006141002487EA115284EAE773CB
:1000D0001A4340D0009A62B3019A012A4FEA0752AC
:1000E00015DC001B61EB02014FF0004202EA0752EF
:1000F000CDE90042001C41F5801132462B4600F745
:10010000CFF903B0BDE8F08F40462146F9E7001B68
:1001100061EB0201001C41F5801300185B412018BF
:10012000A2F5001747EB030140EAD570B6196D41FF
:1001300011E06D084FEA360645EAC0754FEA0752EE
:10014000001B61EB0201001C41F5801149084FEAD8
:1001500030000019514132462B4603B0BDE8F04F44
:1001600000F78FB90098012240000023D0EB020273
:1001700063EBE073009821464FEAE074B8EB0000AF
:1001800061EB0401E9E783F000435BE781F00041A4
:1001900058E72DE9F04D81EA030404F0004B21F00B
:1001A000004514464FF0000A23F0004150EA0502D2
:1001B00020D054EA01021DD0C5F30A570246C5F308
:1001C0001303C1F31300C1F30A5640F4801543F43E
:1001D0008013A7EB0608101BD64608F2FD3873EB18
:1001E000050002D308F1010801E092185B41B8F163
:1001F000000F03DA00200146BDE8F08D00204FF427
:100200008011064684460EE0171B73EB050705D3E5
:10021000121B63EB050306434CEA010C49084FEA45
:10022000300092185B4150EA0107EDD152EA030019
:1002300012D082EA040083EA0501084305D0101BAE
:10024000AB4106D20122002306E000224FF000431A
:1002500002E06FF0010253101AEB06004CEB08515C
:1002600010EB0A0041EB0B01BDE8F04D00F709B9B6
:10027000C1F30A52C1F3130140F2FF3341F480117C
:100280009A4202DA00200146704740F233439A4214
:10029000A2F2334202DC524200F7E3B800F7D2B8D0
:1002A00030B5041E71F1000404DB4FF000444042FD
:1002B00064EB0101141E73F1000405DB1C464FF0D2
:1002C0000043524263EB0403994208BF904230BDA1
:1002D000202A06DBCB17203A41FA02F043EAE0730A
:1002E00006E041FA02F3D040C2F1200291400843F7
:1002F00019467047D2B201E000F8012B491EFBD22B
:1003000070470022F6E710B513460A460446194620
:10031000FFF7F0FF204610BD81B08DF803000720E5
:100320008DF802009DF80300902825D0FFE79DF886
:10033000030000F0F001890100F0080041EA5000DC
:1003400040F2200CC5F6020C50F80C009DF803207A
:1003500002F007039B000F21994088439DF802108B
:100360009940084302F0F001042303EA520242EAF2
:10037000811141F80C00FFE701B070470000000058
:1003800082B0019000208DF80300FFE7019801285A
:1003900009D0FFE70198400801909DF80300013063
:1003A0008DF80300F2E79DF8030002B070470000EB
:1003B0004EF69450CEF20000052101604EF6245016
:1003C000CEF20000016841F4803101607047000006
:1003D00080B588B0DDF828C006900591049203200E
:1003E0008DF80F0000208DF80E008DF80D308DF87F
:1003F0000CC002908DF807009DF81400C00618B9D3
:10040000FFE7059820B9FFE701208DF81F0041E0C4
:100410000598FFF7B5FF01388DF8070000F76CF974
:1004200004984EF69851CEF20001086006984EF6F8
:100430009C51CEF20001086002989DF80F1040EA2E
:100440000160029002989DF80E1040EA81400290EF
:100450009DF80D00029941EA404002909DF80C0081
:10046000029941EA0040029002989DF8071040EA84
:1004700041000290029840F00100029002984EF66E
:10048000A051CEF200010860FFF792FF00208DF826
:100490001F00FFE708B080BD83B002208DF80B007D
:1004A0009DF80B00072121EA00000090009800024F
:1004B00000904EF60C50CEF20000016801910199B7
:1004C0004FF6FF021140019101990022C0F2FA5249
:1004D000114301910099019A114301910199016021
:1004E00003B070470000000082B04FF00060019040
:1004F000002000900198009940F2FF1291430843B8
:100500004EF60851CEF20001086002B070470000BC
:1005100080B572B600BF40F6CA71C0F60001102265
:1005200000F0A6F980BD000083B04EF68450CEF2F4
:10053000000000210160BFF34F8F4EF61450CEF241
:100540000000016821F480310160BFF34F8F4EF647
:100550008050CEF20000006802900298C0F34E3046
:100560000190FFE70298C0F3C9000090FFE70198EF
:100570000099890760F34D114EF67470CEF20000B9
:100580000160FFE70098411E00910028EFD1FFE7CE
:10059000FFE70198411E01910028E3D1FFE7BFF377
:1005A0004F8FBFF36F8F03B0704700000000000053
:1005B00080B584B0A0200390052002900220019015
:1005C0000420009044F20040C5F6020001210160C1
:1005D00044F21040C5F602000022026044F21840C6
:1005E000C5F60200026044F21C40C5F6020002603B
:1005F00044F22040C5F60200026044F22840C5F6ED
:100600000200026044F22C40C5F60200026044F28F
:100610006040C5F60200026048F20810C5F2001002
:100620000160FFF68DFF03980299019A009B00F785
:1006300073F9FFF759FF04B080BD0000000000000F
:1006400080B540F6D971C0F6000100F011F94EF600
:100650000450CEF20000016841F08051016080BD7D
:1006600080B582B00A20ADF8060000208DF80500A4
:10067000FFF712FF4EF21000CEF20000016841F0C9
:1006800004010160016841F002010160BDF806103B
:1006900041F68022C0F2060251434EF21402CEF21D
:1006A00000021160016841F00101016002B080BDEB
:1006B00044F21C40C4F2000000684009C00700B1C9
:1006C000FFE744F21840C4F20000018841F008013D
:1006D000018070470000000080B584B041F2000046
:1006E000C4F2010003904FF4E13102910399814279
:1006F00009D1FFE702984EF20011C0F2F551B1FBAB
:10070000F0F0019023E0039844F20041C4F20001AC
:10071000884209D1FFE702984EF20011C0F2F5516C
:10072000B1FBF0F0019011E0039844F60001C4F22F
:100730000001884209D1FFE702984EF20011C0F291
:10074000F551B1FBF0F00190FFE7FFE7FFE70398F9
:1007500041F20001C4F2010188421FD1FFE744F2D7
:10076000D840C5F60200016841F00101016044F281
:10077000F040C5F60200016841F010010160092057
:100780000121FFF6EDFE0A200021FFF6E9FE092017
:10079000FFF7C2FD0A20FFF7BFFD4FE0039844F2C8
:1007A0000041C4F2000188421FD1FFE744F2D84063
:1007B000C5F60200016841F00101016044F2E84021
:1007C000C5F60200016841F40031016002200121F8
:1007D000FFF6C6FE03200021FFF6C2FE0220FFF74F
:1007E0009BFD0320FFF798FD27E0039844F60001E6
:1007F000C4F2000188421FD1FFE744F2D840C5F699
:100800000200016841F00201016044F2E840C5F6CF
:100810000200016841F4802101601A200121FFF6E5
:100820009FFE1B200021FFF69BFE1A20FFF774FDA0
:100830001B20FFF771FDFFE7FFE7FFE70198039932
:10084000C8600398016821F40041016003980168C1
:1008500041F0040101600398016841F00801016062
:100860000398016841F00101016004B080BD0000FF
:1008700082B080B586B00993089241F20000C4F2BC
:1008800001000590049108A801900499019A40F292
:100890000000C2F2010000F009F80290059800F78C
:1008A00053FA06B0BDE8804002B0704737B5144631
:1008B0000846064B6A46214600F00AF80446694697
:1008C000002000F073FB20463EBD0000AD0F100875
:1008D0002DE9FF4F95B09B468946064600250FE25D
:1008E000252877D100242746F84A0121059400E005
:1008F000044316F8013F203B01FA03F01042F7D100
:1009000030782A2811D06FF02F033078A0F1300210
:10091000092A16D8059A44F0020402EB820203EB7E
:1009200042021044761C0590EFE759F8042B05921B
:10093000002A03DA504244F40054059044F00204C3
:10094000761C30782E2816D116F8010F44F00404D6
:100950002A280DD06FF02F023078A0F13003092B38
:1009600009D807EB870302EB4303C718761CF3E7AC
:1009700059F8047B761C30786C280FD006DC4C28A4
:1009800017D068280DD06A2814D104E0742810D03C
:100990007A280FD10DE044F400140AE044F48014E6
:1009A00001E044F440147278824202D104F58014CC
:1009B000761C761C307866280BD013DC582877D04C
:1009C00009DC002875D04528F6D04628F4D0472801
:1009D0001AD19DE118E0632835D0642879D06528C4
:1009E00012D195E1702873D008DC6728F1D069280E
:1009F0006FD06E280DD06F2806D1B5E073282CD0AB
:100A0000752875D0782874D05A46179990476D1C70
:100A100075E1C4F30250022809D003280DD0D9F89B
:100A2000001004280DD00D6009F1040967E1D9F820
:100A30000010EA17C1E90052F6E7D9F800100D805E
:100A4000F2E70D70F0E719F8041B8DF80010002094
:100A50008DF80100EA46012003E059F804AB4FF09D
:100A6000FF3061074FF0000102D40DE008F10101F1
:100A70008846B9420FDA8045F8DB1AF808100029D9
:100A8000F4D108E008F1010188468142FADB1AF846
:100A900008100029F6D105985B46A0EB080721460F
:100AA0003846179A00F77AFA284400EB080507E061
:100AB0004DE029E10DE01AF8010B5A4617999047CD
:100AC000B8F10108F7D25B4621463846179A13E180
:100AD00042E00A220092C4F302524FF0000A022AB6
:100AE00008D059F804CB032A4FEAEC710AD00DE084
:100AF00029E02AE009F1070121F00702F2E802C12A
:100B0000914609E00FFA8CFC4FEAEC71042A03D1FC
:100B10004FFA8CFC4FEAEC71002907DA0A460021F3
:100B2000DCF1000C61EB02012D2202E0220504D56C
:100B30002B228DF80420012203E0E20701D02022BD
:100B4000F7E7904659E00A2102E010220DE010215B
:100B50004FF0000A00910BE010224FF0000A44F021
:100B600004040827009203E008224FF0000A0092D4
:100B7000C4F30252022A05D059F804CB0021032AFB
:100B800008D009E009F1070121F00702F2E802C1EB
:100B9000914605E01FFA8CFC042A01D10CF0FF0CF1
:100BA0004FF00008220728D5702806D0009B83F05C
:100BB000100353EA0A0305D00EE040228DF804200A
:100BC000012208E05CEA010206D030228DF8042000
:100BD0008DF8050002229046009B83F0080353EA3B
:100BE0000A030AD15CEA010201D1620705D530226D
:100BF0008DF804204FF001087F1E582804D034A03F
:100C000003900EA802900DE036A0F9E75346604627
:100C1000009AFFF661FB84460398825C0298401EAE
:100C2000029002705CEA0100F0D1029806A9081A4D
:100C300000F1200A600702D524F4803400E0012787
:100C4000574502DDA7EB0A0000E0002000EB0A0197
:100C5000009005984144401A0590E00306D45B4695
:100C60002146179A059800F799F90544002706E0F0
:100C700001A85A46C05D179990476D1C7F1C4745D7
:100C8000F6DBE0030CD55B462146179A059800F782
:100C900085F9054404E030205A46179990476D1CA9
:100CA0000099481E00900029F5DC08E0029802999E
:100CB0005A460078491C0291179990476D1CBAF169
:100CC0000001AAF1010AF1DC65E100000928010038
:100CD00030313233343536373839616263646566B2
:100CE0000000000030313233343536373839414274
:100CF000434445460000000000F73EF90544761CD9
:100D0000307800287FF4ECAD19B02846BDE8F08FAC
:100D1000620700D4062709F1070222F0070CFCE85D
:100D20000223E14603F000485FEA080C02D00FF20C
:100D3000702C0DE05FEA045C02D50FF2682C07E02E
:100D40005FEAC47C02D00FF2602C01E0AFF2700CBD
:100D50004FF0FF3823F00043CDF850C065280CD089
:100D600006DC452809D046281DD047283DD13DE066
:100D7000662818D067287ED138E00021112F01DBCA
:100D8000112000E0781CCDE9000106A90EA800F7AB
:100D900031F8DDE90F010E9A03910021009207F16D
:100DA000010A04914DE04FF000400097CDE9011099
:100DB00006A90EA800F71EF8DDE90F0203920E9BAC
:100DC00011990022DDF80CA00093049211B9791C4E
:100DD00000EB010AB7EB0A0004D4C0F1FF3007F1C1
:100DE000010A0490AAEB0700019044E0012F00DA09
:100DF00001270021112F01DD112000E03846CDE947
:100E0000000106A90EA8FFF6F5FFDDE90F010E9A15
:100E10000391002104910092BA4621070CD4039952
:100E2000514500DA8A46BAF1010F05DD009AAAF1B0
:100E30000101515C302908D0B84202DA10F1040FE8
:100E400006DA0121CDE9011015E0AAF10101E9E777
:100E5000002805DC049901440491AAEB000102E09A
:100E6000411C514500DD8A460499401A401C0190FE
:100E70004FF000400290200704D40198504501DB58
:100E8000CDF8048000208DF84F0002980DF14F0737
:100E9000B0F1004F25D02B200E9002984FF00208A1
:100EA00000280CDA404202902D200E9007E00A2123
:100EB0000298FFF6FBF93031029007F8011DB8F1F6
:100EC0000001A8F10108F2DC02980028EFD1791E98
:100ED0000E980870307800F0200040F0450007F8C8
:100EE000020D12A8C01B00F107081498007800B189
:100EF000012000EB0A01019801EBE07105984144E3
:100F0000401A401E0590E00306D45B462146179A1E
:100F1000059800F743F805441498007818B15A462C
:100F2000179990476D1CE00324D55B462146179A1C
:100F3000059800F733F805441CE00498002807DB07
:100F4000DDE90301884203DD0098405C179901E068
:100F5000179930205A469047049805F10105401C26
:100F600004900198401E019004D12E205A461799F2
:100F700090476D1CBAF10001AAF1010ADDDC05E021
:100F800017F8010B5A46179990476D1CB8F10001EC
:100F9000A8F10108F4DC5B462146179A0598ABE6F8
:100FA0002D0000002B000000200000000A68531CE8
:080FB0000B6010707047000097
:040000050800029954
:00000001FF
